:020000040800F2
:10000000307A01205D0300086F6D0008E55B000891
:100010006D6D00084D1D00084199000800000000AA
:100020000000000000000000000000009D02000829
:10003000E91E000800000000F90200087D6E0008BB
:1000400077030008770300087703000877030008A8
:100050007703000877030008770300087703000898
:100060007703000877030008770300086D1D000878
:10007000791D0008851D0008911D00089D1D0008C0
:10008000A91D0008B51D00087703000877030008C4
:100090007703000877030008770300087703000858
:1000A0007703000877030008770300087703000848
:1000B0004D6F0008896F0008C56F000877030008BE
:1000C0007703000877030008770300087703000828
:1000D0007703000877030008D9790008E57900085C
:1000E000ED1E00087703000877030008D9700008A8
:1000F000317100082571000877030008C11D000850
:1001000077030008770300080170000877030008F0
:100110007703000809750008770300083D700008A0
:1001200077030008770300087703000877030008C7
:1001300077030008770300087703000877030008B7
:1001400077030008770300087703000877030008A7
:10015000770300087703000877030008F1790008A7
:100160007703000877030008770300087703000887
:1001700077030008756D0008770300080000000091
:10018000770300087703000800F002F800F076F823
:100190000AA090E8000C82448344AAF10107DA45E2
:1001A00001D100F06BF8AFF2090EBAE80F0013F0BE
:1001B000010F18BFFB1A43F001031847300C010070
:1001C000500C01000A444FF0000C10F8013B13F0F2
:1001D000070408BF10F8014B1D1108BF10F8015BA0
:1001E000641E05D010F8016B641E01F8016BF9D193
:1001F00013F0080F1EBF10F8014BAD1C0C1B09D1EA
:100200006D1E58BF01F801CBFAD505E014F8016B5B
:1002100001F8016B6D1EF9D59142D6D370470000ED
:100220000023002400250026103A28BF78C1FBD8FF
:10023000520728BF30C148BF0B607047662910F0D5
:10024000A882642900F0E881632900F0D68673292A
:1002500000F0DB86002070471FB510F090FA9DE893
:10026000030000F0F9FB00F0EBFE04000020002189
:100270000FF0F4FCE0601FBD10B510BD01F005F8F3
:100280001146FFF7E9FF0CF0E9F901F023F803B498
:10029000FFF7F2FF03BC0AF044FA00002C4B196888
:1002A0000868B0E8F04F80F30988BFF36F8F4FF014
:1002B000000080F3118870470000000008480068C3
:1002C000006880F308884FF0000080F3148862B65D
:1002D00061B6BFF34F8FBFF36F8F00DF00BF00BF6A
:1002E00008ED00E0DFF80C00016841F470010160E6
:1002F000704700BF88ED00E0EFF30980BFF36F8F18
:10030000134B1A681EF0100F08BF20ED108A20E969
:10031000F04F106009B44FF0500080F31188BFF324
:100320004F8FBFF36F8F0EF0AFFC4FF0000080F3E4
:10033000118809BC19680868B0E8F04F1EF0100F6A
:1003400008BFB0EC108A80F30988BFF36F8F704745
:1003500080000020EFF305807047000009488047C7
:1003600009480047FEE7FEE7FEE7FEE7FEE7FEE797
:10037000FEE7FEE7FEE7FEE704480549054A064BAF
:1003800070470000316F00088901000830720120B9
:10039000307A01203074012030740120704770B52C
:1003A000064600F03DFB056806F10B0020F007044F
:1003B000B4429CBF002070BD2B466A68BAB1106879
:1003C000A04210D304F1080188423CBF5068586035
:1003D00007D35168101941601168091B016058600A
:1003E0001460101D70BD13465268002AE7D12146E3
:1003F000284600F01DFB0028DED170BD70B5044614
:10040000051F00F00DFB0068002C14BF446870BD90
:10041000002C18BFAC423CBF20466468F8D301688A
:100420000A18AA4218BF456003D12A68054611443C
:10043000016028684119A1421CBF6C6070BD6168F1
:10044000696021680844286070BD53EA020C00F01E
:1004500069802DE9F04B4FF00006002B1FBFB3FA67
:1004600083F503FA05F424FA05F65E4012BF16433D
:10047000B2FA82F502FA05F4C5F120051EBF22FA90
:1004800005FC44EA0C04203556EA044C4FEA1444B7
:1004900018BF641C4FF000084FF00009904271EB48
:1004A000030C39D3002919BFB1FA81F701FA07F615
:1004B000B0FA80F700FA07F6C7F120071EBF20FA4E
:1004C00007FC46EA0C062037B6FBF4FCA7EB050751
:1004D000103F07F01F0BCBF120060CFA0BFB2CFA98
:1004E00006F644BFB3460026202FA4BF5E464FF059
:1004F000000B5BEA060C08BF4FF0010B19EB0B0970
:10050000ABFB027C48EB0608C01B06FB02CC0BFBD6
:1005100003CC71EB0C01C1E70B460246414648464D
:10052000BDE8F08B13B54FF000004FF00001AFF3C2
:100530000080BDE81C4070470FB4044910B503AA01
:10054000029800F067FD10BC5DF814FB5C01002010
:100550000FB41CB5074B06AA7B446946009005986A
:1005600000F029FD0020694600F038FD1CBC5DF854
:1005700014FB0000810A000070B50446856900681C
:10058000C10601D5302600E02026C00707D070BD87
:10059000D4E9012130469047206A401C20626D1E3C
:1005A000F6D570BD70B5044685690078C00707D1DF
:1005B00070BDD4E9012120209047206A401C2062B0
:1005C0006D1EF6D570BD70B50C460546012A05D0E6
:1005D0002878800600D5EA69002302E0012305E0BF
:1005E0005B1C934202D2E05C0028F9D1A869E618AE
:1005F000C01AA861286A184428622846FFF7BCFF81
:1006000004E0D5E9012114F8010B9047B442F8D376
:100610002846FFF7C7FF70BD2DE9F04106460024CC
:1006200010687529314616A510D0AFF30080002858
:1006300002DA404213A507E031688A0701D512A506
:1006400002E0490704D511A5012401E0AFF30080C1
:1006500000210A2206F1240709E0B0FBF2FCB0FBFE
:10066000F2F302FB1C00303078541846491C002875
:10067000F3D123462A463046BDE8F04100F02DBABA
:10068000000000002D0000002B00000020000000F2
:100690002DE9F05F894604464FF0000ADFF824B1E7
:1006A000FB44C0F820A02046E168884700287DD0A0
:1006B000252806D0D4E901219047206A401C2062F9
:1006C000F1E700255F462046E16888472028064676
:1006D00007DB312E05D2B81910F8200C08B10543FC
:1006E000F1E7A80701D525F00405C4F81CA00027F0
:1006F000C4F818A02A2E09D030460AF00BF838B3F7
:1007000004EB8708303EC8F8186019E059F8041B5C
:10071000204604EB87029161E1688847012F064675
:1007200018D1E069002820DA25F020051DE0D8F86E
:10073000180000EB800006EB40003038C8F81800C5
:100740002046E1688847064609F0E4FF0028EED11C
:10075000012F0AD02E2E08D12046E16888477F1C41
:100760000646022F45F02005C4DBA069002803DA05
:10077000404245F00105A061E80701D025F01005D1
:10078000A6B1A6F14100192802D8203645F400652B
:100790004A463146204625604D46FFF74FFD60B181
:1007A000012807D0ED1D25F0070000E007E000F16B
:1007B000080978E705F1040975E730467AE7206A09
:1007C000BDE8F09FA403010010B5431C02E010F83F
:1007D000011B71B18107FAD14FF0013202C88C1AA6
:1007E0008C4314EAC211F9D0C01A0A0603D0C01E05
:1007F00010BDC01A10BD0A0401D0801E10BD090230
:10080000FCD0401E10BD032A40F2308010F0030CD3
:1008100000F0158011F8013BBCF1020F624498BF53
:1008200011F801CB00F8013B38BF11F8013BA2F1F0
:10083000040298BF00F801CB38BF00F8013B11F06B
:10084000030300F02580083AC0F0088051F8043B0B
:10085000083A51F804CBA0E80810F5E7121D5CBF78
:1008600051F8043B40F8043BAFF30080D20724BFAB
:1008700011F8013B11F801CB48BF11F8012B24BF3F
:1008800000F8013B00F801CB48BF00F8012B70478E
:1008900010B5203AC0F00B80B1E81850203AA0E81B
:1008A0001850B1E81850A0E81850BFF4F5AF5FEA4F
:1008B000027C24BFB1E81850A0E8185044BF18C902
:1008C00018C0BDE810405FEA827C24BF51F8043BA9
:1008D00040F8043B08BF7047D20728BF31F8023BFD
:1008E00048BF11F8012B28BF20F8023B48BF00F891
:1008F000012B704702F0FF0343EA032242EA02425F
:1009000000F002B84FF000020429C0F0128010F08D
:10091000030C00F01B80CCF1040CBCF1020F18BFDB
:1009200000F8012BA8BF20F8022BA1EB0C0100F06E
:100930000DB85FEAC17C24BF00F8012B00F8012B41
:1009400048BF00F8012B70474FF0000200B5134676
:1009500094469646203922BFA0E80C50A0E80C50DF
:10096000B1F12001BFF4F7AF090728BFA0E80C5090
:1009700048BF0CC05DF804EB890028BF40F8042B89
:1009800008BF704748BF20F8022B11F0804F18BFF6
:1009900000F8012B704700004FF0013C50F8042B89
:1009A00051F8043B9A4221D1A2EB0C03934313EA82
:1009B000CC1317D150F8042B51F8043B9A4215D1AF
:1009C000A2EB0C03934313EACC130BD150F8042B86
:1009D00051F8043B9A4209D1A2EB0C03934313EA6A
:1009E000CC13DBD04FF00000704700BFD01A01BA23
:1009F000B1FA81F101F0180122FA01F0CB40C1F106
:100A00002001DBB2C0B2C01A2CFA01F3D11A914313
:100A100011EAC311E6D170477047704770477047BD
:100A200000487047D8710120704770477047704781
:100A300038B504460A4600206946AFF30080002816
:100A400008BF38BD02460099204600F001FB012096
:100A500038BD012000F012BCF8B5AFF300800546A8
:100A600000200C46102000BF0646A819A0420DD950
:100A7000324669460020AFF30080070008BF00F04F
:100A8000FDFB0098A04218BF0546C419FFF7C8FF38
:100A900005600746F01D20F007004619284600F0C3
:100AA0000AF8B44208BFF8BDA21B31463868BDE859
:100AB000F84000F0CDBA00210160C0E90110704794
:100AC0001020704710B500F0BFFA006810BD10B5D7
:100AD000044600F0B9FA046010BD2DE9F0470D4658
:100AE00099469246044600F124080168880604D518
:100AF000E06921F01001216000E00120A84201DD41
:100B0000471B00E00027A1697A1902EB0900081AC7
:100B1000A0612078C00602D42046FFF72DFD0026F4
:100B200008E0D4E901211AF806009047206A401C29
:100B3000761C20624E45F4DB2078C0060AD520469C
:100B4000FFF71AFD06E0D4E9012130209047206A22
:100B5000401C2062381EA7F10107F4DC07E0D4E94D
:100B6000012118F805009047206A401C2062281EC9
:100B7000A5F10105F3DC2046FFF714FD20780006FF
:100B800002D50220BDE8F0870120FBE770472DE980
:100B9000FF4F0C461E464FF0FF378BB0D2E90001E5
:100BA000DDF860800A908A46C1F30A5505B93D46D2
:100BB000002108464FF00000BAF1000F00F4400099
:100BC00005DA00EB80004FF4400101EA50004FEAE3
:100BD0009059B9F1010F00DDB9460A9850EA4A0070
:100BE0000ED044F61050A5F2FF3545432F14B8F14E
:100BF000000F1ED07542291E1EDDC9F100021CE047
:100C0000B8F1010F4FF0000001D0302103E0F243B2
:100C100005E02154401CB042FBDB3046002200219D
:100C200021540B99C1F80880C1E900200FB0BDE83C
:100C3000F08FBD1B6D1CDEE74A4600DA694206A84C
:100C400000F0A6FA06AB93E8070003AB83E80700C1
:100C500050460A9900F08DFB8DE80700A0F5005082
:100C60001F3800900398002D0ADD42F21F014A460A
:100C70000844002303A90390684600F0F6FD09E04C
:100C8000A0F500504A461F38002303A90390684688
:100C900000F000FE8DE807000004000C03D04FF0C8
:100CA000FF30410800E01046B8F1000F03D00022E9
:100CB000009215461EE0751E05D400F0E3F93032AF
:100CC00062556D1EF9D5B3460122084302D00022B9
:100CD0007F1C04E02078302801D100227F1E002AEA
:100CE000099784D01DE0112D07DA00F0CBF93032DE
:100CF00062556D1C50EA0102F5D1084302D00098FC
:100D0000C8B10EE00021681E05E0235C625C6354FC
:100D10002254401E491C8142F7DBAB46A81B401EF3
:100D20000990002004F80B000B98099AC0F808807D
:100D3000C0E9002B7AE711264FF0000857E72DE9AC
:100D4000F04F88460446D21D22F0070191B0D1E948
:100D50000001CDE90A0108F0F4FD02460B98C00F2E
:100D600001D02D2007E02068810701D52B2002E06B
:100D7000202101EAC000032A099001D0072A05DBDF
:100D800003464146204600F0C3F90BE12078800677
:100D900001D5E06900E00620B8F1650F814606D074
:100DA000B8F1660F18D0B8F1670F70D131E00020AC
:100DB000B9F1110F009001DB112301E009F10103EA
:100DC0000AAA01A90CA8FFF7E2FEDDE90C700026D3
:100DD00009F10105834647E001204B4600904FF0A2
:100DE00000470AAA01A90CA8FFF7D1FEDDE90DB062
:100DF0000C995D46002610B909F101000D18B9EBF8
:100E0000050003D4C0F1FF3609F10105A5EB090087
:100E10002BE0B9F1010F01DA4FF001090020B9F11F
:100E2000110F0090484601DD112300E003460AAA95
:100E300001A90CA8FFF7ABFEDDE90C704D460026BA
:100E40008346207800070AD4AB4500DA5D4601A846
:100E5000012D04DD411911F8011C302907D04F453F
:100E600002DA17F1040F04DA012082460FE06D1E4A
:100E7000EEE7002F02DCED1B3E4403E0781CA842A5
:100E800000DD7D1CB81B00F1010A4FF000472078FF
:100E9000000703D4AA4501DB4FF0FF3A0021B7F168
:100EA000004F0DF143088DF8431024D002202B236E
:100EB000002F01DA7F422D230A21021EA0F101003A
:100EC00000DC5FB197FBF1FC97FBF1F201FB1C7CAE
:100ED00017460CF1300C08F801CDEEE7A8F101003F
:100EE00003702188090501D5452100E06521A0F1A5
:100EF000010800F8011C09980FA9A1EB0807FF1DC4
:100F000000B10120411901EBEA70A1693844081AC7
:100F1000401EA0612078C00602D42046FFF72CFBBB
:100F2000099828B1D4E901219047206A401C206229
:100F30002078C00622D52046FFF71EFB1EE0002EBB
:100F400004DBB34502DD01A8805D00E03020D4E978
:100F500001219047206A401C2062761CAAF1010002
:100F60005FEA000A0AD100F06BF8C0680168405CD3
:100F7000D4E901219047206A401C2062281EA5F177
:100F80000105DCDC07E0D4E9012118F8010B9047EA
:100F9000206A401C2062381EA7F10107F3DC2046BE
:100FA000FFF700FB032011B041E6000001694A1C75
:100FB00002610878704700B58FB0CDE9013100219A
:100FC000059105497944CDE9031011466846FFF7BC
:100FD0005FFB0FB000BD0000E5FFFFFF0A6802F8ED
:100FE000010B0A60704710B5436913B1AFF300807D
:100FF00001E0FFF7E8FA012010BD127800F12401AA
:101000000A7000224A700122EDE711684FF0FF32AA
:10101000E9E70000074B70B50D467B44FFF7CBFFB7
:101020000446284600F026F910B14FF0FF3070BD9D
:10103000204670BDDBA7000000487047D07101203A
:1010400000487047F071012000487047D0710120BE
:10105000034640688C46002818BF88423CBF0346C0
:101060004068F8D318681844884207D00CF1030090
:1010700020F00700001D411A521A0146081D0A609F
:10108000FFF7BCB930B5B0F10A024FEA900E71F12A
:1010900000034EEA817EB0EB0E0061EB91014FEA56
:1010A000101E4EEA017E10EB0E0041EB11114FEACB
:1010B000102E4EEA016E10EB0E0041EB11214FEAAB
:1010C000104E4EEA014E10EB0E0041EB114140185C
:1010D00041F100014FEAD00040EA41704FEAD101EE
:1010E00010EB80054FEA810444EA907444EB01045C
:1010F0006D1944EB0404521BA3414FF0000348BF99
:101100000A3200D530BD401C41F1000130BD000065
:101110002DE9F0411F46044603260168072A01F421
:10112000006004DB08B116A505E016A503E008B1D0
:1011300015A500E015A521F010002060A069C01ED3
:10114000A0610FB1401EA0612046FFF715FA4FB114
:10115000D4E9012138469047206A401C2062C01C17
:10116000206206E0206AFAE7D4E9012115F8010BB4
:101170009047761EF8D22046FFF714FABDE8F081BA
:101180004E414E006E616E00494E4600696E66002B
:101190002DE9F047814616468AB0354878440DC897
:1011A0008DE80D0032487844801C03AC0DC884E8FB
:1011B0000D0041F69B300844372190FBF1F290FB83
:1011C000F1F5A5F1800501FB12041B3C02D5644238
:1011D000012000E00020DFF898A080460027FA44B4
:1011E000AAF1BE0A0EE0E0070AD03246684607EBD5
:1011F000470101230AEB810100F04CFB8DE8070059
:1012000064107F1C002CEED1194F7F44AE3F19E0D3
:10121000E80715D007EB04100DF1180A90E80E004E
:101220008AE80E00C068F04201D198190890324651
:10123000012306A903A800F02DFB03AB83E80700F8
:101240006D10641C002DE3D14FF001033246694656
:10125000B8F1000F03A802D000F007FB01E000F096
:1012600019FBC9E90001C9F808200AB0BDE8F087F8
:1012700064FA0000007B00F08000704710B500F0B9
:1012800037F8BDE8104000F02EB87546FFF7D4FEE1
:10129000AE4605006946534620F00700854618B063
:1012A00020B5FFF769F8BDE820404FF000064FF089
:1012B00000074FF000084FF0000B21F00701AC468B
:1012C000ACE8C009ACE8C009ACE8C009ACE8C009AA
:1012D0008D46704710B50446AFF300802046BDE848
:1012E0001040FEF7D4BF002801D009F01ABA7047A9
:1012F00010B5012805D0002103A000F021F801203D
:1013000010BD09A1F8E7000053494752544D454D1F
:101310003A204F7574206F662068656170206D6596
:101320006D6F7279000000003A2048656170206D91
:10133000656D6F727920636F727275707465640089
:1013400070B505460C460A2000E06D1C09F0EAF96C
:1013500035B128780028F8D102E0641C09F0E2F9E0
:1013600014B120780028F8D1BDE870400A2009F0B7
:10137000D9B95FEA400C08BF91F0000F4FEA8C2307
:101380004FEAC12243EA51514FEA1C5018BF00F501
:10139000F0404FEA300018BF41F000415FEA6C5C5A
:1013A00000F02980BCF1FF3F08BF40F0804070474B
:1013B000130C06BF12044FF0100C4FF0000C130E6C
:1013C00004BF12020CF1080C130F04BF12010CF140
:1013D000040C930F04BF92000CF1020CD30F04BF56
:1013E00052000CF1010C11464FF00002A0F11F0059
:1013F000A0EB0C00704711F0004F08BF704731F0B0
:1014000000413FF4D5AF0B0C06BF09044FF0100CA0
:101410004FF0000C0B0E04BF09020CF1080C0B0F6F
:1014200004BF09010CF1040C8B0F04BF89000CF1FF
:10143000020CCB0F04BF49000CF1010CCCF12003CE
:10144000A0EB0C0022FA03F302FA0CF241EA0301CA
:1014500000F10100704720F07F4C80EA030023F088
:101460007F47ACEB070303F57C5300F0004003F12A
:10147000FF032DE980494FEA154B09B44FEA1443A5
:1014800025EA0B4E24EA03480FF2042606EB132745
:1014900049083E785FEA320203FB0667C7F500079A
:1014A00007FB06F64FEA54374FEAD64606F1020626
:1014B00007FB066CCCF1005C4FEA1C472CEA074C9A
:1014C00007FB06F40CFB06F504EB15464FEA9616EF
:1014D00034BF00204FF000404FEAD13706FB07FC35
:1014E0004FEA1C4C0CFB0BF7D21B03FB0CF761EB18
:1014F00007010CFB0EF7B0EB074072EB17420CFB39
:1015000008F734BFA2EB0742B2EB074261EB174189
:101510004FEA0C444FEA910706FB07FC4FEA1C4CCC
:101520000CFB0BF7B0EBC74072EB573203FB0CF729
:1015300034BFA2EBC742B2EBC74261EB57310CFBA1
:101540000EF7B0EBC70072EB57720CFB08F734BF15
:10155000A2EBC702B2EBC70261EB5771039F4FEAE0
:10156000816141EA921104EBCC044FEAD1374FEA92
:10157000826206FB07FC42EA90124FEA80604FEA63
:101580001C4C0CFB0BF7D21B03FB0CF761EB0701A8
:101590000CFB0EF7B0EB074072EB17420CFB08F7A1
:1015A00034BFA2EB0742B2EB074261EB17414FEAAF
:1015B0008C554FEA910704EB9C2406FB07FC4FEA8D
:1015C0001C4C0CFB0BF7B0EBC74072EB573203FB24
:1015D0000CF734BFA2EBC742B2EBC74261EB573105
:1015E0000CFB0EF7B0EBC70072EB57720CFB08F761
:1015F00034BFA2EBC702B2EBC70261EB577115EB28
:101600004C254FEA816141EA92114FEA82624FEA2A
:10161000D13742EA901206FB07FC44F100044FEA7E
:1016200080604FEA1C4C0CFB0BF7D21B03FB0CF742
:1016300061EB07010CFB0EF7B0EB074072EB1742B2
:101640000CFB08F734BFA2EB0742B2EB074261EB99
:10165000174115EB1C154FEA813141EA92414FEADF
:10166000823242EA90424FEA80304FEA0C7644F1EF
:10167000000448EA03434EEA0B484FF0000EB2EB79
:10168000080C71EB030724BF624639464EEB0E0E81
:101690004FF0000B0018524149414BEB0B0BB2EBE2
:1016A000080C71EB03077BF1000B24BF624639463F
:1016B0004EEB0E0E4FF0000B0018524149414BEB20
:1016C0000B0BB2EB080C71EB03077BF1000B24BF93
:1016D000624639464EEB0E0E51EA020718BF46F03D
:1016E000010616EB0E7655F1000254F1000103D508
:1016F000BDE88901BDE80088BDE88901BDE8004872
:10170000B619524141EB0101A3F1010370478080FA
:101710007F7E7D7C7B7A797877767675747372714B
:1017200071706F6E6E6D6C6C6B6A6A696868676603
:1017300066656464636362616160605F5F5E5E5D95
:101740005D5C5C5B5B5A5A59595858575756565509
:1017500055555454535352525251515050504F4F6B
:101760004F4E4E4D4D4D4C4C4C4B4B4B4A4A4A49BB
:1017700049494848484747474746464645454544FE
:101780004444444343434342424242414141002B8B
:101790009C4630D477002BD01CB54FEA370703B4F2
:1017A0004FF010004FF01001BAF1000F06D0BCF15D
:1017B000000FDCBF40F0080040F008014FF00000CF
:1017C0000FBCBDE810400BF1010BBBF1010F08BFCE
:1017D0005FEA170722BF12F1010211F101014FF078
:1017E000004143F1000300F0004043EA000070476D
:1017F000F9D35708D0E746EA064613F1400F4FEAFF
:1018000016461FDD13F1200FDFBF16430A460021E5
:1018100020335B42BED0C3F1200746EA064602FAF7
:1018200007F74FEA164646EA0706C3F1200722FAF1
:1018300003F201FA07F721FA03F14FF0000342EA3D
:101840000702A7E746EA020646EA06464FEA1646B8
:1018500046EA0106BCBF46EA0646360C4FF00003D6
:101860004FF000024FF0000194E72DE9804C9A46BA
:10187000934670B491E8380007C831EA400C48BF7D
:1018800034EA430C03D5FFF7E6FDFFF780FFF0BC19
:10189000BDE8008C2DE9804C9A46934670B491E8DF
:1018A000380007C810F0804F08BF13F0804F03D1F5
:1018B00000F005F8FFF76BFFF0BCBDE8008C20F0EE
:1018C0007F4780EA030023F07F4C07EB0C03A3F56E
:1018D0007C5300F00040A3F1FE0392F0000F00F0F3
:1018E000B38095F0000F00F077802DE901494FEAB1
:1018F00011404FEA144621EA004800FB06FC24EAA6
:10190000064708FB06F607FB08F800FB07F718EB8D
:1019100006484CEB164C4FEA124B18EB07484FEABF
:1019200015464CEB174022EA0B4E0BFB06FC25EA52
:1019300006470EFB06F607FB0EFE0BFB07F71EEB3A
:10194000064E4CEB164C4FF000061EEB074E4CEBD0
:10195000174B18EB0B0840F1000018EB0E0B58EB7F
:10196000000840F100008F1A4FF000013CBFC9434E
:10197000661B14BFB5EB040C00213CBFC943F61B2A
:101980004FEA17444EEA8E0E27EA04454FEA1C47F9
:1019900004FB07622CEA074C05FB07F70CFB05F676
:1019A00004FB0CFC16EB074642EB174216EB0C4609
:1019B00042EB1C421BEB060658EB0202414146EA91
:1019C0009E0601D5BDE80189B619524141EB0101DE
:1019D000A3F10103BDE801894FEA14454FEA11471D
:1019E00024EA054621EA074C05FB07F406FB07F746
:1019F0000CFB06F105FB0CFC11EB074144EB174413
:101A00004FEA124711EB0C4144EB1C4422EA074C0D
:101A100005FB07F206FB07F70CFB06F605FB0CFCC3
:101A200016EB074642EB174216EB0C4642EB1C4501
:101A30006A1854F1000148BF7047B619524141EB92
:101A40000101A3F10103704795F0000F37D04FEA71
:101A500011424FEA144721EA024624EA074C02FBEE
:101A600007F106FB07F70CFB06F402FB0CFC14EB7A
:101A7000074441EB17414FEA154714EB0C4441EB87
:101A80001C4125EA074C02FB07F506FB07F70CFB98
:101A900006F602FB0CFC16EB074645EB174516EB6A
:101AA0000C4645EB1C42121951F1000148BF70472A
:101AB000B619524141EB0101A3F1010370474FEA0E
:101AC00014454FEA114724EA054621EA074C05FB75
:101AD00007F106FB07F70CFB06F24FF0000605FBCB
:101AE0000CFC12EB074241EB174112EB0C4251EB9D
:101AF0001C4148BF7047921841EB0101A3F101035B
:101B0000704710B50146806B026C12F0500F05D083
:101B1000026CD20626D500F0C9FB10BD016C41F461
:101B20000071016401688A6812F0405F17D1027E7B
:101B3000AAB9CA6A12F4700F02D08A6852050ED48C
:101B40004A6822F020024A60016C21F4807101642D
:101B5000016CC90403D4016C41F00101016400F07F
:101B6000A3FB10BD806BC26CBDE810400846104757
:101B700010B5806B40210164416C41F00401416467
:101B800000F094FB10BD10B5806B00F08EFB10BD13
:101B9000464910B54A6822F440324A604A684368B0
:101BA0001A434A6001684A6822F480724A600168F8
:101BB0004A68036942EA03224A6001684A6822F0DF
:101BC00040724A6001684A6883681A434A60016843
:101BD0008A6822F400628A6001688A68C3681A43CE
:101BE0008A60816A6FF07062D14201688A6822F06F
:101BF00070628A6001688A680CD0836A1A438A60BE
:101C000001688A6822F040528A6001688A68C36A63
:101C10001A4301E022F040528A6001688A6822F08B
:101C200002028A6001688A68037E42EA43028A608F
:101C300090F82010002901684A680FD042F4006231
:101C40004A6001684A6822F460424A6001684A6852
:101C5000174C436A04EB43331A4301E022F4006259
:101C60004A600168CA6A22F47002CA620168CA6ADC
:101C7000838B104C04EB03531A43CA6201688A68D1
:101C800022F400728A6001688A6890F8303042EA73
:101C900043228A6001688A6822F480628A6001684F
:101CA0008A68406942EA8020886010BD00230140B4
:101CB00000E0FFFF0000F0FF4FF416724FF4AF6337
:101CC000904209DA914201DA44207047994201DDDD
:101CD0004220704743207047984209DD914201DA63
:101CE00046207047994201DD4820704747207047E1
:101CF000914201DA45207047994201DD4120704749
:101D0000492070476FF03B02904209DA914201DAB4
:101D1000442070473C2901DD422070474320704732
:101D20003C2809DD914201DA462070473C2901DD5B
:101D30004820704747207047914201DA452070479C
:101D40003C2901DD4120704749207047FEE710B56E
:101D5000C378002202219B1C03E0445C491C2244FE
:101D600092B28B42F9DCD043C0B210BD014800F002
:101D7000C1BC000090330020014800F0BBBC000053
:101D8000B0340020014800F0B5BC0000DC27002082
:101D9000014800F0AFBC000010350020014800F001
:101DA000A9BC00001C290020014800F0A3BC0000D1
:101DB000F0330020014800F09DBC000050340020AA
:101DC000014800F097BC00003C280020016818235F
:101DD000CAB2103AB2FBF3F2054B6FF30901032AC2
:101DE0009B5CC36500D9091D8165084670470000EA
:101DF000000A010810B5014600208B698A6A4FF07D
:101E0000C07453B1B3F5005F15D072B1012A0CD084
:101E1000022A0AD0032A09D104E01AB1012A06D005
:101E2000022A03D1C96AC90100D5012010BDC96ABF
:101E3000A142FAD010BD002AF7D0012AF2D0022A1E
:101E4000F3D0032AF3D010BD30B50468256825F41B
:101E500080252560046863608368402B036803D095
:101E600099600068C26030BD9A600068C16030BD92
:101E700070B504460020024604EB8001401CC1F806
:101E800084241028F8D300204FF400752118401C3A
:101E900081F81C22A842F9D3227062700120A07040
:101EA000C4F8C42420764021A171627684F81C24F1
:101EB00084F81D0484F81F2484F81E24294604F1A4
:101EC0001C00FEF741FD294604F50770FEF73CFDB6
:101ED000122104F22640FEF715FD3E2104F587602D
:101EE000FEF732FD002070BD704700000548016814
:101EF000C90405D581140160034800680AF0FCBFDD
:101F000070470000143C01405000002072B6FEE70C
:101F1000002229B101291AD002291BD04FF44072A6
:101F20000E490B6823F440730B600B6813430B607E
:101F30000A6822F0F8020A600A68022303EBC00074
:101F400002430A60086840F48030086070474FF42C
:101F50008072E5E74FF40072E2E70000103C0240B7
:101F60001348016889050FD5016821F400710160EB
:101F7000016841F400610160016821F400610160C1
:101F8000016841F400710160016849050FD50168DD
:101F900021F480610160016841F4805101600168B1
:101FA00021F480510160016841F480610160704753
:101FB000003C024008490A6822F440720A600A683C
:101FC00042F004020A600A684FF4803343EA0020BA
:101FD00002430A6070470000103C0240064A136842
:101FE00023F44073136013681360136843F0010314
:101FF0001360017070470000103C0240094910B5A1
:102000000C6824F440740C600C6844F440740C6058
:102010000C6844F001040C600260BFF36F8F4360F2
:1020200010BD0000103C0240074A136823F44073BF
:102030001360136843F480731360136843F0010363
:102040001360018070470000103C0240074A13688B
:1020500023F440731360136843F400731360136830
:1020600043F001031360016070470000103C024020
:1020700017490868C206174805D5C26942F0100220
:10208000C26110220A600A68920605D5C26942F050
:102090000802C26120220A600A68520605D5C26998
:1020A00042F00402C26140220A600A68120605D5A5
:1020B000C26942F00202C26180220A600A68920785
:1020C00005D5C26942F02002C26102200860704753
:1020D0000C3C02402436002070B511490446002013
:1020E000C86100F027FE05460E4E09E0601C07D0CF
:1020F00024B100F01FFE401BA04201D9032070BD97
:102100003068C003F2D43068C00701D001203060CD
:10211000306810F0F200F2D0FFF7AAFF012070BD86
:10212000243600200C3C024070B588B00D460446B1
:10213000164605A902A80BF0E1FE05A890EC030ADB
:1021400002A8D0EC031A09F073FBC4ED000A85ED78
:10215000000A86ED001A08B0012070BD78B5002491
:10216000009490F83C20012A19D0012280F83C20EC
:102170000A6807250368092A13D9DE680A3A02EBC0
:1021800042029540AE43DE600A788B680A3A02EB61
:10219000420293400268D5682B43D36010E00220CE
:1021A00078BD1E6902EB42029540AE431E610A787B
:1021B0008B6802EB42029340026815692B4313615E
:1021C0004A681F25072A13D203685E6B521E02EB72
:1021D00082029540AE435E630A8893B20A79521E2A
:1021E00002EB820293400268556B2B43536327E056
:1021F00003680D2A12D21E6BD21F02EB8202954099
:10220000AE431E630A8893B20A79D21F02EB8202A0
:1022100093400268156B2B43136311E0DE6A0D3A9D
:1022200002EB82029540AE43DE620A8893B20A79DD
:102230000D3A02EB820293400268D56A2B43D362C7
:10224000164B0568144A9D4206D10D68122D03D124
:10225000556845F48005556005689D4218D10B68A6
:10226000102B01D0112B13D1536843F4000353609A
:10227000096810290CD10A490A4A0968B1FBF2F130
:1022800001EB8101490000E0491E00910029FBD1CA
:1022900080F83C40002078BD002301400020014030
:1022A0007000002040420F0070477047704770B5C3
:1022B00004004FF0000603D0206C002510B107E0A9
:1022C000012070BD204600F01DF8656484F83C5084
:1022D000206CC00610D4206C20F4885040F002001E
:1022E00020642046FFF754FC6564206C20F0020057
:1022F00040F00100206400E0012684F83C503046A4
:1023000070BD000070B586B0064614216846FEF721
:102310001BFB1D493068884234D11C4800250168E8
:1023200041F480710160006800F4807005901748E6
:102330001438016841F0020101600068694600F04C
:1023400002000590012000900320CDE9010510480E
:1023500000F0FEFB104C0F48C4E900050015A56015
:10236000C4E90350400060618000A0614011C4E9ED
:1023700007052046656200F08DFA08B1FFF7C6FD3B
:10238000B463A66306B070BD00200140443802402B
:1023900000040240106402402827002018B50022E3
:1023A000009290F83C10012907D0012180F83C10E0
:1023B00001688B68DB0702D011E0022018BD8B6832
:1023C00043F001038B602E492E4B0968B1FBF3F1FA
:1023D00001EB410100E0491E00910029FBD1016899
:1023E0008B68DB0742D0036C40F20164A34343F4E3
:1023F000807303644B685B0505D5036C23F40053BD
:1024000043F480530364036CDB0404D5436C23F072
:102410000603436400E0426480F83C201A4A6FF0EF
:1024200022030B6051680068CA06184906D088422A
:1024300024D1816811F0405F13D01FE08842F8D0AA
:10244000134A904203D1D1F80423D206F1D0114AA5
:10245000904213D1D1F8041301F01F011029E8D3E1
:102460000CE0816841F08041816007E0016C41F03F
:1024700010010164416C41F001014164002018BD6C
:102480007000002040420F00002301400020014066
:102490000021014000220140F8B5002304460093CA
:1024A00090F83C00012807D0012084F83C00206807
:1024B0008568ED0702D011E00220F8BD856845F07F
:1024C000010585604048414D0068B0FBF5F000EB28
:1024D000400000E0401E00900028FBD12068856885
:1024E000ED0503D5856825F48075856020688568CD
:1024F000ED075FD0256C40F20166B54345F4807569
:1025000025644068400505D5206C20F4005040F457
:1025100080502064206CC00404D5606C20F006005C
:10252000606400E0636484F83C30A36B2948284D64
:10253000D863A36B28481864A36B2848D864236821
:102540006FF0220018602068436843F080634360A6
:102550002068836843F480738360134620680A46CA
:10256000A66B00F14C01304600F0FEF968681C498A
:10257000C006206806D0884224D1816811F0405FEF
:1025800013D01FE08842F8D0164A904203D1D1F808
:102590000423D206F1D0144A904213D1D1F8041387
:1025A00001F01F011029E8D30CE0816841F080415F
:1025B000816007E0206C40F010002064606C40F007
:1025C000010060640020F8BD7000002040420F0050
:1025D00000230140031B0008871B0008711B000833
:1025E00000200140002101400022014010B50400FC
:1025F00002D0607910B106E0012010BD00202071EA
:10260000204600F005F801206071002010BD000098
:1026100008B500680649884208D10648016841F4B7
:1026200080510160006800F48050009008BD0000F7
:1026300000300240303802402DE9F0410446876DF9
:1026400000F078FB054694F835000026022806D0F5
:102650008020606584F834600120BDE8F081206846
:10266000016821F0160101602068416921F08001B4
:102670004161206C08B9A06C20B12068016821F08C
:10268000080101602068016821F0010101600CE08F
:1026900000F050FB401B052807D92020606503206F
:1026A00084F8350084F83460D7E720680068C007F4
:1026B000EED194F85C103F208840B860012084F887
:1026C000350084F834600020C7E790F835100229FF
:1026D00003D08021416501207047052180F8351025
:1026E0000068016821F00101016000207047406D21
:1026F000704700002DE9F84304464FF00009CDF87B
:10270000009063484FF41651A56D0068B0FBF1F7D7
:102710002E6894F85C20082101FA02F030420FD0B4
:102720002068026852070BD5026822F0040202609A
:1027300094F85C008140A960606D40F00100606524
:1027400094F85C104FF0010808FA01F0304208D00C
:1027500021684969090604D5A860606D40F002004F
:10276000606594F85C1004208840304208D02168ED
:102770000968890704D5A860606D40F004006065B1
:1027800094F85C1010208840304218D02168096805
:10279000090714D5A86020680168490304D50068BA
:1027A000000308D5A16C07E00168C90503D40168DE
:1027B00021F008010160216C09B12046884794F896
:1027C0005C1020208840304231D021680968C90659
:1027D0002DD5A86094F8350005282068016806D03A
:1027E000490347D5006800031DD4616C1CE021F04B
:1027F000160101602068416921F080014161206C6F
:1028000008B9A06C20B12068016821F008010160BE
:1028100094F85C103F208840A86084F8358084F8E4
:102820003490216D1FE0E16B09B120468847606D4F
:1028300000282BD0606DC00714D0052084F8350027
:102840002068016821F0010101600098401C00909F
:10285000B84203D820680068C007F6D184F83580F4
:1028600084F83490E16C002910D001B02046BDE816
:10287000F04308470168C905D5D4016821F010016B
:10288000016084F8358084F83490CCE7BDE8F883A3
:10289000700000202DE9F041044600F04BFA054697
:1028A0005CB1022084F83500002684F8346020688A
:1028B000016821F0010101600DE00120BDE8F08117
:1028C00000F038FA401B052805D920206065032058
:1028D00084F83500F2E720680068C007F0D121686D
:1028E0000A6820480240D4E901031843D4E90335BB
:1028F0002B43184363691843A3691843E3691843DA
:10290000236A18431043626A042A03D1D4E90B23D3
:102910001A431043086020684069656A20F0070187
:1029200028460D43012704280CD1A06A0543E06A1C
:1029300040B12046FFF75EFA20B14020606584F880
:102940003570BAE7206845612046FFF73FFA94F8F2
:102950005C203F2191408160666584F835700020DD
:10296000ACE700003F8010F02DE9F0410446866D91
:1029700090F83400002501280DD0012084F834009F
:1029800094F835700020012F07D084F83400022518
:102990002846BDE8F0810220FBE7022784F8357065
:1029A00060652046FFF750FA94F85C103F2088409D
:1029B000B0602068016841F016010160206C20B110
:1029C0002068016841F0080101602068016841F059
:1029D00001010160DCE7000070B5044600F0AAF9CF
:1029E0000546601C02D004480078044400F0A2F9B7
:1029F000401BA042FAD370BD740000202DE9F047BF
:102A0000044622480E46017E01290AD00121804653
:102A100001764CF250394846FFF75EFB020003D0C6
:102A20002FE00220BDE8F0874FF0FF3030602068D3
:102A3000174F012801D0A5681CE0207C6168FFF7D2
:102A4000B9FA4846FFF748FB0246386820F0040010
:102A5000386014E0217C2846FFF75AFA4846FFF711
:102A60003BFB0200386820F0FA00386001D0356086
:102A700005E06D1CD4E902100844A842EAD8FFF72B
:102A80006FFA002188F818101046CBE72436002092
:102A9000103C02400348016841F000410160002001
:102AA00070470000103C02402DE9F0471B4E0546E0
:102AB0001446307E1F468946012808D00120307612
:102AC0004CF250384046FFF707FB18B114E00220E3
:102AD000BDE8F0879DB1012D16D0022D19D02246F8
:102AE0003B464846FFF78AFA4046FFF7F5FA0C499D
:102AF0000A6822F001020A6000213176E8E7E1B2BB
:102B00004846FFF76BFAEFE7A1B24846FFF78CFAA9
:102B1000EAE721464846FFF799FAE5E72436002020
:102B2000103C0240074900200A68002A09DA054AD9
:102B3000054B0C3A1360054B13600968002900DA55
:102B400001207047103C024023016745AB89EFCD5F
:102B50002DE9F84FDFF89C910022A9F1040B03271F
:102B60004FF00F0C09F1040AABF1040E01250B68BC
:102B700095402B40AB426ED10C7904F00304012C3C
:102B800001D0022C15D18668540007FA04F826EA11
:102B90000806D1F80C8008FA04F848EA0608C0F8DC
:102BA00008804468AC430D79C5F300159540254372
:102BB00045600C79E443A40708D0C568540007FABF
:102BC00004F6B5438E68A6402E43C6600C7904F027
:102BD0000304022C11D1D40800EB8406356A540793
:102BE000E40E0CFA04F825EA0805D1F8108008FA7A
:102BF00004F848EA0508C6F820800568540007FA7A
:102C000004F6B5430E7906F00306A6402E4306608F
:102C10004C6814F4403F66D0374C256845F4804535
:102C20002560246822F0030504F480440094334CAA
:102C300005EB0408D8F808589407260F0CFA06F498
:102C4000A5432F4CA04201D1002424E02D4CA042EA
:102C500002D101241FE046E02B4CA04201D1022406
:102C600019E02A4CA04201D1032414E0284CA042D0
:102C700001D104240FE0274CA04201D105240AE031
:102C8000254CA04201D1062405E0244CA04201D1EC
:102C9000072400E00824B4402C43C8F80848D9F8B9
:102CA00000404D464E689C43F60200D51C432C6004
:102CB000DAF8004055464E689C43B60200D51C43E6
:102CC0002C60DBF800405D464E689C43B60300D59F
:102CD0001C432C60DEF8004075464E689C43F603AA
:102CE00000D51C432C60521C102AFFF43FAFBDE8F6
:102CF000F88F0000083C0140443802400030014099
:102D0000000002400004024000080240000C0240A3
:102D1000001002400014024000180240001C024053
:102D20000069084000D0012070470AB181617047F6
:102D30000904FBE701488068704700007400002028
:102D4000D0F8DC0305F0BCBDD0F8DC0305F0CEBD47
:102D5000006806F06FBA006806F070BAC1EB0111A6
:102D600000EB8100002200F81A2F4270C2728272BA
:102D700010467047C1EB011100EB810090F84C0048
:102D80007047C1EB011100EB8100806B704710B5FB
:102D9000044690F8D403012809D0012084F8D40314
:102DA000206806F056FA002084F8D40310BD0220F3
:102DB00010BD2DE9FF4F83B00546DDE9117690F88F
:102DC000D403DDF8408093468A4601281CD0CAEB24
:102DD0000A10012305EB800485F8D4334FF0000975
:102DE00084F819900698207584F815A084F8267048
:102DF0000BF07F00A07551462846FFF7AFFF5FEA52
:102E00000B6005D5E37505E0022007B0BDE8F08F43
:102E100084F81790286806F011FA012F06D1B8F14E
:102E2000010F03D110B9BC2E00D9BC2684F818803C
:102E3000B0B22085CDF80080CDE9017028685A46EF
:102E40005146069B06F070FA85F8D493DDE7D0F87A
:102E5000DC0305F0C5BD2DE9F0030E46DDE906C92A
:102E6000DDE90874C1EB061100EB81010225CA758A
:102E700081F82630BCF1000F0AD081F82A500024D6
:102E800063B1012B31D0022B28D0032B16D125E0C2
:102E90004FF0030881F82A804C76F0E7BCF1010F6F
:102EA0000CD11AB18A7E012A19D007E0D7B90122C4
:102EB00081F83D2000E0C2B181F82A50C1F82C9081
:102EC0004F6381F84C408C634E7581F84D40827998
:102ED0000068BDE8F003143106F0B6BA12B191F8FB
:102EE0003C20E8E791F83D20E5E781F82A40E5E756
:102EF0002DE9F04104460068064606F0A6F90128CF
:102F000076D1206806F05AFC002871D0206806F0BF
:102F100055FC800203D521684FF4001048612068F9
:102F200006F04CFCC00203D521684FF480104861C4
:102F3000206806F043FC400103D521684FF0806013
:102F40004861206806F03AFC800702D5216802201B
:102F50004861206806F032FC800018D521684FF0E7
:102F600000504861D6F84004C00710D11021304607
:102F700006F042F9304606F023F9607A022803D1C0
:102F80000121206806F0F6FB2046FFF7DDFE2068F1
:102F900006F014FCC00102D5204602F096FD206820
:102FA00006F00CFC000705D5204600F0C0F82168AB
:102FB00008204861206806F001FC800123D52068C4
:102FC00006F03EFA074600254FF0010814E005F030
:102FD0000F0108FA01F038420DD006EB4510D0F889
:102FE0000005E9B20004204603D502F03DFA02E0F4
:102FF0001CE002F0F7FB6D1C6079A842E7D821685D
:103000004FF000704861206806F0D8FBC043C0064E
:103010000CD42068816921F010018161204602F002
:103020009EFD2068816941F010018161BDE8F08159
:10303000F8B5040005D094F8D5032568002610B132
:1030400006E00120F8BD84F8D463204600F028F89B
:10305000032084F8D503B5F1A04F00D1A6712068F4
:1030600006F07AF8207C8DF8000094E80F0006F056
:1030700013F8022560B90121206806F0DBFB38B99E
:10308000207C8DF8000094E80F0006F00BFB10B1D7
:1030900084F8D553D5E7012084F8D5030020F8BD86
:1030A00010B586B0044614216846FDF74DFC17495B
:1030B0002068884227D1164C0020216841F0020187
:1030C0002160216801F0020105914FF44041009117
:1030D0000221CDE90110032003900C2004906946E1
:1030E0000C48FFF735FD206840F000502060206854
:1030F000002200F00050059005214D2000F0A8FBB3
:103100004D2000F097FB06B010BD00000000044009
:103110003038024000040240D0F8DC0305F07DBCEA
:10312000D0F8DC0305F07DBC006806F06ABBD0F87F
:10313000DC0305F01BBC10B5044690F8D40301284D
:103140000DD0012084F8D4030121206806F01CF87A
:10315000206806F02FF8002084F8D40310BD022068
:1031600010BD10B5044690F8D403012809D0012001
:1031700084F8D403206806F08BFB002084F8D40385
:1031800010BD022010BD000070B5040025D094F8D9
:103190003D00002520B984F83C50204600F052FA4A
:1031A000242084F83D002068016821F001010160BD
:1031B0002068016841F4004101602068016821F441
:1031C0000041016000F038FC4D4B6168994201D824
:1031D0004C4900E04C49884201D2012070BD4B4966
:1031E0002268B0FBF1F1566826F03F060E435660A8
:1031F00062689A4206D94FF4967251434FF47A723C
:10320000B1FBF2F12268491C166A26F03F063143F1
:1032100011626168994210D84900401EB0FBF1F27A
:10322000521CC2F30B02042A01D2042022E0B0FB9C
:10323000F1F0401CC0F30B001CE0A268F2B301EBFC
:10324000C10303EB0116431EB3FBF6F35B1C43F40F
:1032500080431B0549D092B301EBC10202EB01117F
:10326000401EB0FBF1F0401CC0F30B0040F4804066
:1032700040F400402168CA694CF6FF739A4310433A
:10328000C861D4E9071001432068026822F0C00237
:1032900011430160D4E9030101432068826848F2C8
:1032A000FF339A4311438160D4E90510014320683C
:1032B000C26822F0FF021143C16001E00EE016E097
:1032C0002068016841F0010101602564202084F834
:1032D0003D00256384F83E50002070BD01EB41069F
:1032E000431EB3FBF6F35B1CB3E70120C2E701EB1F
:1032F0004101401EB0FBF1F0401CC0F30B00B7E7EA
:10330000A086010080841E0000093D0040420F009D
:103310002DE9FF4F83B09A46DDE9118793460446B5
:10332000DDF84090FFF706FD054694F83D002028A3
:1033300070D11923012274492046009502F067FDDF
:103340000028F5D194F83C00012863D0012084F8CE
:103350003C0020680168C90703D1016841F0010100
:1033600001602068016821F400610160222084F876
:103370003D00402084F83E0000262664C4F82490D6
:10338000A4F82A80608D20856048E062CDE9007550
:1033900053465A462046049902F03CFC002879D155
:1033A000208DD0B1012821D00228206824D0416985
:1033B00080690090208D032866D801282BD05449BD
:1033C00002283B464FF00002009557D08846204621
:1033D00002F01DFD00285DD13AE020684169816955
:1033E0000091016841F4007101607DE0206801688E
:1033F00021F480610160F0E7016821F480610160DF
:103400002068016841F400610160206841698069B9
:10341000009069E075E02A463946204602F098FDA2
:1034200088BB54E02068016841F4007101602068A5
:103430000069616A0870606A401C6062218D491EE3
:103440002185618D491E618521680969017042E00D
:103450002068016821F48061016020680069616A68
:103460000870606A401C6062208D401E2085608D5F
:10347000401E60853B46002241460095204602F0F2
:10348000C6FC00B9CEE705E02A463946204602F0E0
:103490005FFD18B1012007B0BDE8F08F206800691A
:1034A000616A0870606A401C6062208D401E81B2B3
:1034B0002185608D401E608520684269D243520795
:1034C00012D4032903D1016821F4806101602068CE
:1034D0000069616A0870606A401C6062208D401E4D
:1034E0002085608D401E6085208D00287FF462AFAE
:1034F000202084F83D0084F83E6084F83C60002081
:10350000C9E70220C7E70000020010000000FFFF2B
:10351000040001002DE9FF4F83B09A46DDE91197C1
:1035200093460446DDF84080FFF704FC054694F816
:103530003D0020287FD119230122404920460095D3
:1035400002F065FC002876D194F83C00012872D086
:10355000012084F83C0020680168C90703D1016894
:1035600041F0010101602068016821F400610160FF
:10357000212084F83D00402084F83E000026266487
:10358000C4F82480A4F82A90608D20852C48E0623D
:10359000CDE9007553465A462046049902F0B8FB1F
:1035A00070B930E02A463946204602F00BFD58B18A
:1035B000206C042804D12068016841F40071016086
:1035C000012007B0BDE8F08F606A216800780861CB
:1035D000626A521C6262208D401E80B22085618D1D
:1035E000491E618521684B69DB435B070BD468B1D9
:1035F00010780861606A401C6062208D401E208542
:10360000608D401E6085208D0028CBD12A4639462A
:10361000204602F0D1FB0028CAD154F83D0B0168C6
:1036200041F400710160202004F81E09E6776677F6
:103630000020C6E7FFE70220C3E7000002001000F9
:103640000000FFFF2DE9F04387B0044614216846CF
:10365000FDF77AF92D492068884254D12C4800257D
:10366000016841F0020101600068694600F0020053
:1036700005904FF4406000901220019001200290CC
:1036800003200390042004902248FFF761FA2048A9
:103690001030016841F48001016000681F4E00F4A1
:1036A000800005901C4830604FF06067C6E90175E6
:1036B0004FF48068C6E9035875614FF44039B5612D
:1036C000C6E9075930467562FFF7E4F808B1FEF71E
:1036D0001DFCA663B463114E0F4860367830E6E8EF
:1036E00002074020A6E821010C4846F81459603032
:1036F000B561C6E907597562FFF7CCF808B1FEF766
:1037000005FC6663B46307B0BDE8F0830058004071
:10371000303802400004024040600240DC270020B4
:10372000024881680278114481607047740000206B
:103730000B4810B5016841F400710160016841F463
:1037400080610160016841F480710160032000F034
:103750009FF8002000F006F800F050F8002010BD9F
:10376000003C024030B505461F4887B00024016880
:1037700041F480710160006806A900F48070059032
:10378000684600F039F90398A8B100F055F94000F7
:103790001649174AB0FBF1F11648491E026040F283
:1037A000E732C0E90324C0E90114846100F0A6FCFB
:1037B000040003D015E000F03FF9E9E70D4800F000
:1037C00041FD04000DD12D2000F034F8102D07D25A
:1037D000002229462D2000F03BF80748056000E054
:1037E000012407B0204630BD4038024040420F005F
:1037F0000020004070350020780000200C4882B086
:10380000016841F480410160006800F4804000904C
:103810000748001F016841F08051016000680022E4
:1038200000F0805000900F21901E02B000F010B800
:1038300044380240002809DB00F01F0201219140BA
:103840004009800000F1E020C0F80011704700003E
:10385000F0B40E4B1B68C3F30223C3F10704042C1E
:1038600000D904241D1D072D01D2002300E0DB1E1A
:10387000012606FA04F56D1E0D409D409E40761E01
:10388000164045EA0601F0BC06F086B80CED00E0F3
:10389000064A00F0070110684FF6FF03184040EA9F
:1038A0000120034908431060704700000CED00E060
:1038B0000000FA05704700002DE9F0470D460400AE
:1038C00065D0DFF81491D9F80000EFB200F00700DE
:1038D000A84207D289F80070D9F8000000F007006C
:1038E000A84254D120683D4E810712D5400703D528
:1038F000306840F4E05030602078000703D530682D
:1039000040F4604030603068A16820F0F000084367
:1039100030602078C0072DD0304960680839012810
:1039200012D0022813D0032811D009688907002972
:103930002DDA316821F0030101433160FFF7FAF914
:10394000804641F2883A0EE009688903EFE709688A
:103950008901ECE7FFF7EEF9A0EB0801514502D928
:103960000320BDE8F0873068616800F00C00B0EB20
:10397000810FEFD1D9F80010484601F00701A942A4
:1039800007D90770006800F00700A84201D00120A5
:10399000E7E72078400705D53068E16820F4E0507B
:1039A000084330602078000706D53068216920F48C
:1039B000604040EAC100306000F05EF83168084ABB
:1039C000C1F30311515CC84006490860064800680D
:1039D000FFF7C8FE0020C4E7003C02400838024060
:1039E000E80901087000002078000020014901204A
:1039F000C8647047000047420F2202600C4A1368F7
:103A000003F003034360136803F0F003836013685B
:103A100003F4E053C36012684FF4E05303EAD202A8
:103A200002610448006800F0070008607047000069
:103A300008380240003C0240044805490068096813
:103A4000044AC1F38221515CC840704770000020D5
:103A500008380240F8090108044805490068096867
:103A6000044AC1F34231515CC840704770000020E5
:103A700008380240F8090108104810B5006810F035
:103A80000C010F4818D0042916D0082914D10B4C6A
:103A9000241F216801F03F02216821680023C1F33F
:103AA0008811A1FB0001FCF7D0FC2168C1F30141A2
:103AB000491C4900B0FBF1F010BD0000083802407D
:103AC0000024F400054810B50068000605D5FFF78E
:103AD000F1FE02498020891C087010BD0C3802409C
:103AE0002DE9F84F040075D02078DFF838A3C0071F
:103AF000AAF1040548D00AF104000168C1F381016C
:103B0000012908D00068C0F3810002280AD1DAF840
:103B10000000400206D52868800335D5606800287B
:103B2000E1D031E06068B0F5803F10D0B0F5A02F53
:103B3000286810D020F480302860286820F4802085
:103B400028606068A0B1FFF7F5F806460CE0286829
:103B500040F48030F4E740F480202860F7E7FFF776
:103B6000E9F8801B642871D828688003F7D50BE03A
:103B7000FFF7E0F8064604E0FFF7DCF8801B642856
:103B8000F1D828688003F7D42078DFF89C9280076A
:103B90004FF0000B3DD5A348001D016811F00C0F3C
:103BA00008D00068C0F3810002280AD1DAF80000CA
:103BB000400206D42868800715D5E068012809D19D
:103BC00011E0E068B8B10120C9F80000FFF7B2F8D1
:103BD000064605E022E1FFF7ADF8801B0228C2D8B7
:103BE00028688007F7D52868216920F0F80040EAA6
:103BF000C10028600DE0C9F800B0FFF79BF8064649
:103C000004E0FFF797F8801B02281FD82868800778
:103C1000F7D42078000722D5824F84486169703735
:103C200071B101210160FFF785F8064604E0FFF756
:103C300081F8801B022809D838688007F7D50EE084
:103C4000C0F800B0FFF776F8064605E082E0FFF71F
:103C500071F8801B02287DD838688007F7D4207857
:103C6000400765D56F484FF000083C300068C00041
:103C70000BD46C483C30016841F080510160006811
:103C80004FF0010800F080500090694F3868C0057F
:103C90000FD4386840F480703860FFF74BF8064660
:103CA00004E0FFF747F8801B022853D83868C005A6
:103CB000F7D55C4FA0686C3701280FD0052838680D
:103CC00010D020F001003860386820F0040038601F
:103CD000A068B0B1FFF72EF806460EE0386840F055
:103CE0000100F4E740F004003860F7E7FFF722F83E
:103CF000811B41F28830814263D838688007F5D54E
:103D00000DE0FFF717F8064606E0FFF713F8811BF2
:103D100041F28830814254D838688007F5D4B8F130
:103D2000000F05D03F483C30016821F08051016010
:103D3000A069B8B33B49091D0968C1F38101022993
:103D400046D00228584606D0C9F86000FEF7F2FFB8
:103D5000044639E035E04F46C9F86000FEF7EAFF57
:103D6000064604E0FEF7E6FF801B022829D82868F3
:103D70008001F7D4D4E907010843A16A2D4A490814
:103D800002EB0141626A41EA8211084394F82C1067
:103D900040EA0161CAF8001001203866FEF7CAFF48
:103DA000044605E03CE0FEF7C5FF001B022808D8EA
:103DB00028688001F7D533E0FEF7BCFF001B02281E
:103DC00002D90320BDE8F88F28688001F4D427E0E9
:103DD0000128F7D0DAF80000E26900F4800191428E
:103DE0001CD1226A00F03F01914217D147F6C07101
:103DF000626A0140B1EB821F10D1A26A4FF0FF331B
:103E000000F4403103EB5202B1EB024F06D194F8BB
:103E10002C1000F07060B0EB016F01D00120D1E7F1
:103E20000020CFE70438024000004742800E47429E
:103E3000007000400000FFFF7047704770B504003D
:103E400009D0606A002540B125616561A56294F8DA
:103E5000510040B120E0012070BD6068B0F5827F64
:103E6000F4D0E561F2E784F850502D48A0652D4864
:103E7000E0652D4820662D4860662D48A0662D48D7
:103E8000E0662D4820672D486067A06F08B92C4870
:103E9000A067014620468847022084F85100206828
:103EA000016821F040010160A088218900F482703E
:103EB00001F404410843A18901F400610843217C15
:103EC00001F002010843217D01F001010843218B2B
:103ED00001F400710843217F01F03801084394F890
:103EE000201001F080010843218D01F400510843A6
:103EF00021680860A069042101EA104094F82410A8
:103F000001F010010843216848602068C16921F46C
:103F10000061C1616565012084F85100002070BD19
:103F200009400008054000080D4000080B4000084B
:103F3000074000080F4000083B3E0008393E0008DB
:103F4000453F00082DE9F04186B006461421684639
:103F5000FCF7FAFC25493068884243D12448002503
:103F6000016841F4804101600068214900F480400B
:103F700010390590086840F004000860086800F0F7
:103F800004000590086840F00200086008680224F8
:103F900000F002000590082003274FF005088DE887
:103FA000B10169461348FEF7D3FD20038DE8B10146
:103FB00069461148FEF7CCFD114C1048C4E90005D4
:103FC0004020C4E902050001C4E90405A561E561DA
:103FD000256220466562FEF75DFC08B1FDF796FF9D
:103FE000B464A66306B0BDE8F0810000003800406C
:103FF0004038024000080240000402407060024065
:104000001C29002070477047704770477047704701
:1040100070477047704710B590F83C20012A22D0B5
:10402000012280F83C20CA688C6822F44072224346
:104030004C6822F4806222430C6822F4006222431E
:104040000C6922F4805222434C6922F4005222432C
:10405000C969002322F480420A4301684A6480F857
:104060003C30002010BD022010BD000070B590F85B
:104070003C20012A32D0012580F83C50022280F8F1
:104080003D2002685368946823F070060B68334340
:104090005360134B02689A4214D0B2F1804F11D092
:1040A000104B9A420ED0104B9A420BD00F4B9A42B3
:1040B00008D00F4B9A4205D00E4B9A4202D00E4BBD
:1040C0009A4204D1496824F080031943916080F832
:1040D0003D50002180F83C10084670BD022070BDA4
:1040E000000001400004004000080040000C0040B7
:1040F00000040140004001400018004010B50400D9
:1041000003D094F83D0010B10EE0012010BD002056
:1041100084F83C00204603F091F9A06C08B91148DE
:10412000A064014620468847022084F83D00211DF6
:10413000206803F035F8012084F8460084F83E003A
:1041400084F83F0084F8400084F8410084F842007D
:1041500084F8430084F8440084F8450084F83D0066
:10416000002010BD6941000808B500682D4A2E499D
:10417000904207D1086840F001000860086800F02C
:1041800001000BE0284A294B121F984208D1106801
:1041900040F020001060106800F02000009008BD82
:1041A000234B984207D1086840F4803008600868C3
:1041B00000F48030F2E71F4B984207D1086840F4C2
:1041C00000300860086800F40030E7E71A4B9842B6
:1041D00007D1086840F480200860086800F4802057
:1041E000DCE71649884211D1106840F040001060A9
:1041F0001068002200F04000009005212B20FFF7FE
:1042000027FBBDE808402B20FFF714BB0C49884270
:10421000C5D1106840F080001060106800F0800088
:10422000BCE7000000000140443802400014004098
:104230000040014000440140004801400018004097
:10424000001C004090F83D10012901D0012070476A
:10425000022180F83D100168CA6842F00102CA607C
:1042600000681149884214D0B0F1804F11D00F4935
:1042700088420ED00E4988420BD00E49884208D0A1
:104280000D49884205D00D49884202D00C49884228
:1042900004D1816801F00701062903D0016841F0CB
:1042A000010101600020704700000140000400404F
:1042B00000080040000C00400004014000400140A4
:1042C0000018004070B5044690F83C000025012815
:1042D00017D0012684F83C60022084F83D00206855
:1042E000826822F0770222F47F42826008685028B8
:1042F00038D00DDC20284FD005DC90B3102811D128
:104300004AE0022070BD302846D040280AD13BE068
:1043100060282FD070280DD0B0F5805F03D0B0F5A5
:10432000005F12D0012584F83D60002084F83C0035
:10433000284670BDCB68D1E90121206802F0A9FFB1
:104340002068816841F0770109E0CB68D1E901215B
:10435000206802F09EFF2068816841F480418160FE
:10436000E1E719E0CA684968206803F09DF8502128
:10437000206806E0CA684968206803F0A6F8602152
:10438000206802F090FFCEE7CA684968206803F011
:104390008BF840212068F4E7226801461046F0E7D8
:1043A0002DE9F0410D46040003D094F83D0018B10A
:1043B0000FE00120BDE8F081002084F83C00204699
:1043C00003F03CF8206F08B92248206701462046D8
:1043D0008847022084F83D002068816844F2070283
:1043E00091438160211D206802F0DAFE2068816817
:1043F0008269066A2B68AF690B4340F203318A4336
:1044000042EA0722A968EF6911434FF6FC42914343
:10441000EA6841EA07210A4329692F6A090141EA4A
:10442000073717436A686D6926F0AA0141EA05114A
:104430000A4383602068876154F8460B02620120BA
:1044400004F81F09E0752076E0762077A07500203B
:10445000B0E7000059440008F0B587B004461421C5
:104460006846FCF771FA55492068544A103902250C
:1044700001240326524B534F4FF0000CB0F1804FF4
:1044800026D0DFF844E1704556D1106840F00200B4
:104490001060106800F002000590086840F002000B
:1044A00008600868694600F00200059030208DE839
:1044B0002110CDE903653846FEF74AFB00220521AD
:1044C0001D20FFF7C5F91D20FFF7B4F907B0F0BDB7
:1044D000106840F001001060106800F001000590C5
:1044E000086840F001000860086800F001000590CD
:1044F000086840F0020008600868694600F00200A1
:1045000005904FF400400090CDE90154CDE90364DB
:104510001846FEF71DFB08200090CDE90154CDE9B7
:10452000036469463846FEF713FB002205211C2070
:10453000FFF78EF91C20C7E7DFF890E070451FD128
:10454000106840F004001060106800F0040005904E
:10455000086840F0020008600868694600F0020040
:104560000590C0208DE82110CDE903C53846FEF73F
:10457000EFFA002205211E20FFF76AF91E20A3E7AB
:10458000134FB842A2D1106840F0080010601068C4
:1045900000F008000590086840F001000860086815
:1045A000CDE9006500F00100CDE90450CDE90246F7
:1045B00069461846FEF7CCFA88E70000403802400A
:1045C00000000240000402400004004000080040D7
:1045D000000C004070B590F83E50044690F83F3013
:1045E00090F8422090F84300022621B104290BD014
:1045F000012D16D10FE0012D13D1012A11D184F81C
:104600003E6084F8426016E0012B0AD1012808D1EF
:1046100084F83F600DE0012B03D1012A01D101286C
:1046200001D0012070BD84F83E6084F83F6084F8BA
:10463000426084F8436091B1042904D00122002132
:10464000206802F019FE01220421206802F014FE05
:104650002068016841F001010160002070BD012265
:1046600000212068F2E77047704770472DE9F0415C
:1046700004460068C66805694FF00007A90715D50C
:10468000B10713D5F91E01610120207720688069E8
:10469000800702D0D4F8901005E0D4F89810204696
:1046A0008847D4F89C10204688472777680718D594
:1046B000700716D521686FF004000861022020778A
:1046C0002068806910F4407F02D0D4F8901005E093
:1046D000D4F8981020468847D4F89C102046884784
:1046E0002777280717D5300715D521686FF0080000
:1046F0000861042020772068C069800702D0D4F8C0
:10470000901005E0D4F8981020468847D4F89C1003
:10471000204688472777E80618D5F00616D5216881
:104720006FF010000861082020772068C06910F43D
:10473000407F02D0D4F8901005E0D4F898102046BD
:104740008847D4F89C10204688472777E80709D087
:10475000F00707D021686FF001000861D4F88010DD
:1047600020468847280609D5300607D521686FF00E
:1047700080000861D4F8B01020468847680609D543
:10478000700607D521686FF040000861D4F88810E2
:1047900020468847A8060BD5B00609D521686FF0DA
:1047A000200008612046D4F8A810BDE8F041084771
:1047B000BDE8F08170B586B0044614216846FCF768
:1047C000C3F8294D21680023284A02242848A94219
:1047D00011D1116841F0100111601168029301F0CC
:1047E000100105914FF4D441CDE900140121CDE928
:1047F000034169460DE01F4E0325B1420DD11168FA
:1048000041F010011160116801F010010591602163
:1048100010E0FEF79DF906B070BD174E1748B14283
:104820000FD1116841F002011160116801F002011D
:10483000059181150091CDE90143CDE90335694624
:10484000E7E70F4EB142E6D1116841F00201116075
:10485000116801F0020105917115CDE9001402AE55
:10486000694686E83800D4E700000140303802404D
:10487000001002400040014000440140000402409A
:104880000048014070B5044690F83C00002501281E
:104890000FD0012084F83C006AB1042A0FD0082A06
:1048A00011D00C2A13D00125002084F83C002846A2
:1048B00070BD022070BD206802F0FEFCF4E72068A5
:1048C00002F02AFDF0E7206802F05CFDECE72068CA
:1048D00002F08CFDE8E7704710B5040003D094F8AF
:1048E0003D0010B10EE0012010BD002084F83C0016
:1048F000204602F0A3FDA06D08B91148A06501464D
:1049000020468847022084F83D00211D206802F0DF
:1049100047FC012084F8460084F83E0084F83F00FC
:1049200084F8400084F8410084F8420084F8430091
:1049300084F8440084F8450084F83D00002010BD50
:1049400045490008704770B5044690F83C000026C1
:104950000D4601280FD0012084F83C006AB1042ADA
:104960001DD0082A2FD00C2A3FD00126002084F821
:104970003C00304670BD022070BD206802F09CFCF7
:104980002068816941F0080181612068816921F016
:1049900004018161206881692A69114311E020685E
:1049A00002F0BAFC2068816941F4006181612068ED
:1049B000816921F480618161206881692A6941EA05
:1049C00002218161D2E7206802F0DCFC2068C16925
:1049D00041F00801C1612068C16921F00401C16191
:1049E0002068C1692A69114311E0206802F0FEFCC9
:1049F0002068C16941F40061C1612068C16921F486
:104A00008061C1612068C1692A6941EA0221C161EE
:104A1000ACE7000010B5040003D094F83D0010B1DD
:104A20000EE0012010BD002084F83C00204602F07A
:104A300005FD206E08B911482066014620468847CA
:104A4000022084F83D00211D206802F0A9FB01200E
:104A500084F8460084F83E0084F83F0084F8400063
:104A600084F8410084F8420084F8430084F844004C
:104A700084F8450084F83D00002010BD814A0008FC
:104A8000704770477047000010B5044649B10429CB
:104A90000AD008290BD094F8410001280AD001203F
:104AA00010BD94F83E00F8E794F83F00F5E794F85D
:104AB0004000F2E70220B1B3042938D0082939D0E8
:104AC00084F841000122206802F0D6FB1B492068CF
:104AD0001B4A884201D0904203D1436C43F4004307
:104AE00043642068884213D0B0F1804F10D015493C
:104AF00088420DD0144988420AD01449884207D010
:104B0000904205D01249884202D01249884204D10D
:104B1000816801F00701062903D0016841F0010115
:104B20000160002010BDFFE784F83E00CAE784F86A
:104B30003F00C7E784F84000C4E7000000000140E0
:104B4000000401400004004000080040000C004048
:104B5000004001400018004030B504460D46006892
:104B6000002202F089FB194941F2111220689310CA
:104B7000884202D01649884209D1016A114206D101
:104B8000016A194203D1416C21F40041416420685B
:104B9000016A114206D1016A194203D1016821F06C
:104BA0000101016001203DB1042D08D0082D09D07C
:104BB00084F84100002030BD84F83E00FAE784F814
:104BC0003F00F7E784F84000F4E7000000000140F0
:104BD0000004014000680349884201D1FEF7A0BDEE
:104BE000704700000020004070477047704738B59C
:104BF000044690F84200202801D0022038BD51B16F
:104C00004AB10120206300206063204602F062FE6A
:104C1000010002D005E0012038BD206B012802D040
:104C20000121084638BD206802684068009020686D
:104C30000C3050E8002F42F0100240E80023002B17
:104C4000F5D1EEE77047704770B5044620680C3028
:104C500050E8001F21F4907140E80012002AF5D1BD
:104C60002068143050E8001F21F0010140E80012D4
:104C7000002AF5D1206B012809D120680C3050E8BA
:104C8000001F21F0100140E80012002AF5D1206831
:104C900040694FF00005400615D52068143050E8F3
:104CA000001F21F0400140E80012002AF5D1E06B1E
:104CB00048B10565E06BFDF7BFFC20B1E06BFDF787
:104CC00016FD202806D0E585202084F842002563C3
:104CD000002070BD10206064032070BD70477047D5
:104CE00070470000F8B5016804460868CA684B6957
:104CF00010F00F0F4FF0000556D003F0010602F43C
:104D00009077374361D0C10705D0D10503D5616CD9
:104D100041F001016164410705D5D90703D0616CF9
:104D200041F002016164810705D5D90703D0616CA8
:104D300041F004016164010707D502F0200131430D
:104D400003D0616C41F008016164616C00293BD0C3
:104D5000800604D5900602D5204602F0D3FC2068D8
:104D60004069616CC0F38010090700D440B320464D
:104D700002F06DFC2068406940061ED520681430A2
:104D800050E8001F21F0400140E80012002AF5D150
:104D9000E06B90B16E490165E06BFDF796FC002871
:104DA00012D0E06B016DCFE083060ED593060CD5D3
:104DB0002046BDE8F84002F0A5BC2046A16DC3E046
:104DC000A16D204688476564F8BD266B2023012E1F
:104DD0007FD1C6067DD5D6067BD508684868009089
:104DE00048694FF00206400641D5E16B086840680B
:104DF0000004000CE8D0A28D8242E5D9E085C869A4
:104E0000B0F5807F2DD020680C3050E8001F21F4D1
:104E1000807140E80012002AF5D12068143050E873
:104E2000001F21F0010140E80012002AF5D120689E
:104E3000143050E8001F21F0400140E80012002A21
:104E4000F5D184F84230256320680C3050E8001F0B
:104E500021F0100140E80012002AF5D1E06BFDF7C7
:104E6000EBFB6663A08DE18D401A81B22AE0A08D34
:104E7000E18D401A81B2E08D0028A5D00029A3D091
:104E800020680C3050E8002F22F4907240E8002790
:104E9000002FF5D12068143050E8002F22F00102D5
:104EA00040E80027002FF5D184F8423025632068C0
:104EB0000C3050E8002F22F0100240E80023002BB5
:104EC000F5D16663E26E01B02046BDE8F0401047C0
:104ED000FFE705062CD515062AD594F841002128B0
:104EE0007FF472AFA068B0F5805F01D12069B0B1E6
:104EF000206A411C2162216800784860E08C401ED5
:104F00000004000CE084EBD12068C16821F080012E
:104F1000C1602068C16841F04001C160F8BD206AED
:104F20000088C0F308004860206A801C2062E5E722
:104F30004006F3D55006F1D5CA68204622F040025B
:104F4000CA6084F84130E16C01B0BDE8F040084728
:104F50001575000870B5040004D094F841000025D0
:104F600010B10DE0012070BD84F84050204602F0E1
:104F7000A3FB206F08B914482067014620468847E4
:104F8000242084F841002068C16821F40051C160E8
:104F9000204602F019FC2068016921F4904101616A
:104FA0002068416921F02A0141612068C16841F40B
:104FB0000051C1606564202084F8410084F84200FB
:104FC0006563002070BD0000CD4F00082DE9F04F53
:104FD00087B0044614216846FBF7B6FCA0489F4FF3
:104FE0000221D4F800C09E4B10380322DFF874E28F
:104FF00000258E064FF0080B4FF48069BC4545D163
:105000001F6847F480171F601B6803F48013059323
:10501000036843F004030360036803F0040305938B
:10502000036843F00803036000688A4600F0080044
:105030000590C802CDE9000ACDE9025290465F46CC
:105040006946CDF810B07046FDF782FD0420CDE929
:10505000000ACDE90258694604978348FDF778FDB8
:10506000834F82483860C7E90165C7E90359801555
:105070007D61C7E906500002C7E908053846FDF71B
:1050800009FC08B1FCF742FFE76371E0DFF8E48157
:10509000DFF8CCA107270AF1040AC4451BD1DAF8CE
:1050A000004044F01004CAF80040DAF8003003F081
:1050B00010030593036843F001030360006800F0E8
:1050C000010005904FF4C0608DE82300CDE903276F
:1050D00069466948BEE0DFF8A481C4454CD1D3F8E5
:1050E00000C04CF4003CC3F800C01B6803F400335C
:1050F0000593036843F008030360006800F00800AC
:10510000059060208DE82300CDE9032769465648C5
:10511000FDF71EFD564F5548603778303860C7E9B7
:105120000165C7E90359B0467D614FF48036BD6122
:10513000C7E9075638467D62FDF7ACFB08B1FCF7BE
:10514000E5FEE763BC634A4F4848C0379030E7E864
:1051500002084020A7E82102454847F81459C0300A
:10516000BD61C7E907567D6251E0FCF7CFFE52E012
:10517000BC6307B0BDE8F08FDFF80481C4454CD1B3
:10518000D3F800C04CF4802CC3F800C01B6803F4B3
:1051900080230593036843F008030360006800F070
:1051A000080005904FF440708DE82300CDE90327F7
:1051B00069462D48FDF7CCFC2C49324F1831384652
:1051C0003960C0E90165C0E90359B0464E464FF465
:1051D0000039C7F8209089157D61C7E906517D62C5
:1051E000FDF758FB08B1FCF791FEE763BC63254F60
:1051F0001E4860374830E7E80208402061C7214870
:1052000047F814596030BD61C7E907597D62FDF761
:1052100041FB0028A9D1A763AAE71B4B9C45A8D155
:10522000DAF8004044F02004CAF80040DAF8003010
:1052300003F020030593036843F004030360006850
:1052400000F004000590C0208DE82300CDE9032B79
:1052500069467046FDF77CFC8BE70000005000407B
:105260004038024000080240000C0240106002403A
:105270009033002000100140000002400044004034
:1052800000480040B03400200014014010B5002355
:105290003AB190F84140202C09D090F841400CB32D
:1052A00024E0416C41F020014164012010BD0D2932
:1052B0001CD2DFE801F007090B0D0F1113151B1BA2
:1052C0001B222400826416E0C26414E0026512E02E
:1052D000426510E082650EE0C2650CE002660AE0FD
:1052E000426608E00B2908D00C2908D0416C41F037
:1052F000200141640123184610BD0267FBE74267A5
:10530000F9E70022A1B190F84030012B16D001231B
:1053100080F8403090F84130202B11D0416C41F0A2
:10532000200141640122002180F84010104670479E
:10533000416C41F020014164012070470220704718
:10534000C166F0E7704770472DE9F843044690F8CE
:1053500041001F4615460E46202802D00220BDE817
:10536000F8838EB185B100206064212084F841006B
:10537000FDF7E0FCA5848146E584A0684FF0200895
:10538000B0F5805F02D003E00120E8E7206910B1AA
:10539000354600260EE000250CE08021204602F074
:1053A000E3FAA0B9BDB115F8010B21684860E08CA3
:1053B000401EE084E08C4B464FF00002009700282E
:1053C000EBD14FF04001204602F0CEFA40B184F814
:1053D00041800320C3E736F8020BC0F30800E4E77E
:1053E00084F841800020BAE737B5044690F84100C0
:1053F000202801D002203EBD019951B34AB3216259
:10540000A284E28400206064212384F84130A56BEB
:10541000114BEB63A56B114B2B64A56B104BEB642D
:10542000A36B186520681346A56B021D2846FDF77F
:105430009BFA21686FF0400008602068143050E843
:10544000001F41F0800140E80012002AF5D1002041
:105450003EBD01203EBD00000B76000849760008E5
:1054600021750008704770472DE9F05F0546006818
:105470000E46074604F09AF9C6EB061140074FF0B6
:1054800007084FF0040905EB810401D5484633E0D5
:105490003146286804F08AF9C0054FF0080A08D59B
:1054A00007EB46114FF48070C1F8080584F84DA051
:1054B00028E03146286804F079F9000705D507EBA4
:1054C0004611C1F808A506200CE03146286804F012
:1054D0006DF9400509D507EB46114FF48060C1F81E
:1054E0000805092084F84D000CE03146286804F0D6
:1054F0005DF900060AD5802007EB4611C1F80805C2
:1055000084F84D803146286803F0A3FE31462868B0
:1055100004F04CF980052868314604D503F099FE63
:105520004FF4007059E104F041F9C0074FF0200B2F
:105530004FF0010A4FF000084ED007EB4617C7F8AE
:1055400008B5E07E012807D184F81B80D7F8040550
:1055500020F48030C7F80405A87930B1206BD7F863
:105560001015C1F31201401AA06384F84DA0C4F8CD
:1055700044805246C7F808A594F8260030B10228A6
:1055800004D003280AD0012808D013E03146286847
:1055900003F05FFE1020C7F808050BE0D7F8000500
:1055A00040F00050C7F8000584F84C2031462846EA
:1055B000FDF74DFCA879012807D1208DA16B01448E
:1055C000491EB1FBF0F0C00704D014F83C0F80F086
:1055D00001002070BDE8F09F3146286804F0E6F82D
:1055E00080060CD507EB4611C1F808B5A07E01284E
:1055F000F0D184F81BA0032084F84D00B4E03146BC
:10560000286804F0D3F880074FF0050B75D507EB39
:1056100046100222C0F8082594F84D10012916D032
:10562000062919D007291CD009291AD0052933D0F9
:10563000032963D004297DD008297ED00229C9D04E
:1056400094F84C2031462846FDF701FCC2E784F867
:105650004D2084F84CA0F3E784F84D2084F84CB03A
:10566000EEE784F84D20616C491C6164022910D971
:10567000C4F84480A27E4146012A07D1E176217711
:10568000D0F8041521F48031C0F8041584F84C904A
:10569000D6E784F84C2022E084F84D20E17E0129F1
:1056A000CED194F826100329F3D1A16C491CA16432
:1056B000022911D9C4F8488084F81B80616C032941
:1056C00001D284F81CA0D0F8041521F48031C0F870
:1056D000041584F84C9002E084F84C20B0E794F86C
:1056E000261009B10229ABD1D0F8001521F0804174
:1056F00041F00041C0F80015A2E724E084F84D20F5
:10570000E17E01299CD184F84C20D0F8041541F4A5
:105710008031C0F80415D0F80C1541F04001C0F8F4
:105720000C15D0F80C1521F02001C0F80C15D6E7A7
:1057300000E002E084F84D20ABE784F84D20606C77
:10574000401C6064A2E73146286804F02FF8400648
:1057500010D507EB46114020C1F8080584F84DB07C
:10576000A07E08B9C4F8448031462868BDE8F05FDF
:1057700003F06FBD3146286804F018F8C0067FF5C5
:1057800065AF94F82600032803D028B1022803D07F
:105790000FE0C4F8448006E0C4F84480A87910B152
:1057A000E07E012818D184F84D903146286803F036
:1057B00050FDE07E01280FD107EB461084F81B80D6
:1057C000D0F8041521F48031C0F80415D0F80C1578
:1057D00041F02001C0F80C15102007EB4611C1F86C
:1057E0000805F7E62DE9F05F054600680F46064616
:1057F00003F0DCFFC7EB071140074FF0040A05EB8D
:10580000810405D506EB4711C1F808A5072089E0FA
:105810003946286803F0CAFF80064FF000084FF0B1
:1058200001094FF0020B28D506EB47112020C1F8E3
:105830000805607E0326012809D184F8198084F8C0
:105840004CB084F84D603946286803F002FDA07E14
:10585000012810D1E07E00280DD194F826000128FF
:1058600001D084F81B9084F84D603946286803F015
:10587000F0FCC4F84480BDE8F09F3946286803F086
:1058800095FF800506D506EB47114FF40070C1F86F
:10589000080549E03946286803F088FFC00720D092
:1058A000C4F844803946286803F080FF400606D5D6
:1058B00006EB471184F819904020C1F80805E07EF6
:1058C00048B106EB471084F81B80D0F8041521F48A
:1058D0008031C0F8041506EB47114846C1F8089519
:1058E00020E03946286803F061FF40060ED5052008
:1058F00084F84D00A07E08B984F81990C4F844805B
:105900003946286803F0A5FC402028E0394628687D
:1059100003F04CFF00070DD506EB47110820C1F836
:105920000805062084F84D0039462868BDE8F05F78
:1059300003F08FBC3946286803F038FFC00613D542
:10594000C4F8448084F84DA0607E18B9207E08B960
:1059500084F819903946286803F07BFC102006EB88
:105960004711C1F8080586E73946286803F01EFF8D
:1059700000061CD5A87970B1606C401C60640228D8
:1059800011D9C4F84480524684F84CA039462846C0
:10599000FDF75DFA09E0072084F84D0039462868D4
:1059A00003F057FC01E084F84CB08020D7E739467B
:1059B000286803F0FBFE400509D5092084F84D0056
:1059C0003946286803F045FC4FF48060C7E7394644
:1059D000286803F0EBFE8007C5D506EB47115A4651
:1059E000C1F808B594F84D00012817D003283AD023
:1059F000042840D005284ED006284FD0072801D0D3
:105A00000928B0D184F84D20606C401C60640228E5
:105A10004AD9C4F8448084F84CA04FE084F84D2063
:105A200084F84C9094F82600022801D0032845D130
:105A3000A87928B994F83D0080F0010084F83D0071
:105A4000A87901283AD1606B20B3218D0844401E0B
:105A5000B0FBF1F0C00731D094F83D0080F00100B8
:105A600084F83D002AE084F84D20E07E012825D10D
:105A700084F84C2022E084F84D2084F84C20E07E0D
:105A800001281BD184F81B80D1F8040520F4803054
:105A9000C1F8040512E084F84D20E9E784F84D20B0
:105AA000052084F84C0009E084F84C20D1F800056A
:105AB00020F0804040F00040C1F8000594F84C20F0
:105AC00039462846FDF7C3F9D5E67CB50468054696
:105AD000D4F840040190D4F8400420F02E00009047
