:020000040800F2
:10000000000002209D970008E1510008E35100081C
:10001000E5510008E7510008E95100080000000020
:10002000000000000000000000000000C18F000878
:10003000EB5100080000000061900008AF8A000842
:10004000ED970008ED970008ED970008ED97000880
:10005000ED970008ED970008ED970008ED97000870
:10006000ED970008ED970008ED970008ED97000860
:10007000ED970008ED970008ED970008ED97000850
:10008000ED970008ED970008ED970008ED97000840
:10009000ED970008ED970008ED970008ED97000830
:1000A000ED970008ED970008ED970008ED97000820
:1000B000ED970008ED970008ED970008ED97000810
:1000C000ED970008ED970008ED970008ED97000800
:1000D000ED970008ED970008ED970008ED51000836
:1000E000ED970008ED970008ED970008ED970008E0
:1000F000ED970008FD510008ED970008ED97000806
:10010000ED970008ED970008ED970008ED970008BF
:10011000ED970008ED970008ED970008ED970008AF
:10012000ED970008ED970008ED970008ED9700089F
:10013000ED970008ED970008ED970008ED9700088F
:10014000ED970008ED970008ED970008ED9700087F
:10015000ED970008ED970008ED970008ED9700086F
:10016000ED970008ED970008ED970008ED9700085F
:10017000ED970008ED970008ED97000800000000DB
:08018000ED970008ED9700085F
:1001C0000348044B834202D0034B03B118477047E6
:1001D000E4010020E4010020000000000548064B77
:1001E0001B1AD90F01EBA301491002D0034B03B135
:1001F00018477047E4010020E401002000000000DF
:1002000010B5064C237843B9FFF7DAFF044B13B15E
:100210000448AFF300800123237010BDE4010020E7
:1002200000000000F097000808B5044B1BB104491A
:100230000448AFF30080BDE80840CFE700000000AD
:10024000E8010020F097000870B50F4B0F4DAB424E
:10025000A3EB050607D0B610002455F8043B013483
:100260009847A642F9D809F0C3FA094D094B5E1B1D
:10027000AB424FEAA60606D0002455F8043B0134F1
:100280009847A642F9D870BD509D0008509D0008BF
:10029000509D0008549D0008036A2DE9F0418468D0
:1002A00080460E46002B3BD0A3891B0717D5236938
:1002B000ABB1013EA36816F8015F013BA360EDB14D
:1002C000002B07DAA7699F4222462946404610DCE8
:1002D0000A2D0ED023685A1C22601D70EAE72146C1
:1002E000404601F0D3FE0028E3D04FF0FF30BDE8D8
:1002F000F08102F0F9FB0130DCD1F6E7002B09DADE
:1003000022460A21404602F0EFFB0130EDD00A20E0
:10031000BDE8F08123680A22591C21601A70F6E7B3
:1003200000F0F4F8C0E700BF024B01461868FFF781
:10033000B3BF00BF0C00002000207047024A0349F1
:10034000034801F081BE00BF00000020250700081F
:10035000100000200C4B4168994210B5044601D0B2
:1003600000F0E0F9A168094B994202D0204600F064
:10037000D9F9E168064B994204D02046BDE8104007
:1003800000F0D0B910BD00BF0002002068020020BC
:10039000D0020020002070472DE9F8432A4C2B4959
:1003A000DFF8BC90DFF8BC80294FC4F83811002575
:1003B00004230822294604F15C00264EE360C4E9C8
:1003C0000055C4E90455A5606566A56100F0C6F84E
:1003D000214B63670822294604F1C400C4E9084997
:1003E000C4E90A87C4E91A55C4E91E552567C4F84B
:1003F000CC50C4F88050266300F0B0F8174BC4F816
:10040000DC30294604F16803082204F59670C4F82C
:100410008830C4E92398C4E92576C4E93455C4E991
:100420003855C4F8D850C4F83451C4F8E85000F036
:1004300095F804F1D003C4E93D98C4E93F76C4F8C7
:10044000F030BDE8F88300BF000200203D03000843
:1004500071370008953700080900010012000200FA
:100460000937000831370008F8B5254BD3F8383183
:100470000646002B3CD0234FD7E90134013B04D57D
:100480001DE05A1C04F1680419D0B4F90C50013B6A
:10049000002DF6D11C4BE360C4E90155C4E90455B5
:1004A00065662560A5610822294604F15C0000F01C
:1004B00055F8C4E90D55C4E912552046F8BD3D680C
:1004C0000DB12F46D8E74FF4D671304600F0EEFC60
:1004D000044680B10423C0E900530C302946A060D3
:1004E0004FF4D072254600F039F83C602F46C3E740
:1004F000FFF752FFBFE70C2338603360DDE700BF32
:1005000000020020000000200100FFFF036A03B189
:100510007047044B044AD3F838310262002BF7D1FC
:100520003AE700BF0002002055030008704700BFF3
:10053000704700BF024A0349002001F085BD00BF9B
:100540000000002039030008024A0349002001F09E
:100550007BBD00BF0000002095030008830730B575
:1005600047D0541E002A3ED0CAB2034601E0013CE7
:1005700039D303F8012B9D07F9D1032C2CD9CDB227
:1005800005EB05250F2C05EB054535D9A4F1100227
:1005900022F00F0C03F1100EE6444FEA121C1A462B
:1005A000C2E90055C2E9025510327245F8D10CF18A
:1005B000010214F00C0F03EB021204F00F0C13D025
:1005C000ACF1040323F003030433134442F8045B47
:1005D0009342FBD10CF003042CB1C9B21C4403F8C4
:1005E000011BA342FBD130BD64461346002CF4D15D
:1005F000F9E703461446C0E71A46A446E0E700BF01
:10060000B1F90C302DE9F0411E070C4680463DD46F
:100610004A68002A56DDE56A002D34D00022D8F859
:100620000060C8F8002013F48052216A57D10123DA
:100630004046A847451C024666D0B4F90C30E56A2E
:10064000216A580705D56368D21A636B0BB1236C16
:10065000D21A00234046A847431C42D000236360BF
:1006600023692360A389DF0400D56065616BC8F846
:10067000006041B104F14403994202D0404601F0C8
:1006800085FC002363630020BDE8F0810E69002E25
:10069000F9D09B070D6808BF4B690E6018BF002397
:1006A000AD1B8B600BE02B463246216AA76A4046A1
:1006B000B847B0F1000CA5EB0C05664406DD002D33
:1006C000F1DCE0E70A6C002AA5DCDCE7B4F90C30C9
:1006D00043F04003A3814FF0FF30BDE8F081626D2D
:1006E000AFE7D8F80010B4F90C301D29F0D80C4A47
:1006F000CA40D507ECD52269226000226260DA0484
:10070000B4D50029B1D0B1E7D8F80030002B94D08F
:100710001D2B01D0162BD9D1C8F80060B3E700BF5C
:10072000010040200B69B3B110B5044682B008B196
:10073000036A5BB1B1F90C3013B9002002B010BDEF
:10074000204602B0BDE81040FFF75ABF0191FFF705
:10075000DDFE0199EEE70020704700BFB8B138B563
:100760000D4A0369156804462BB10DB12B6A53B1CC
:10077000B4F90C300BB9002038BD21462846BDE83D
:100780003840FFF73DBF2846FFF7C0FEF0E7034AB9
:100790000349044801F058BC0C0000200000002070
:1007A0002507000810000020014B1868704700BFA3
:1007B0000C0000202DE9F04755EC104B84B0002DC3
:1007C0000D9E894692463DDB0027652E1F7035D071
:1007D0003DDC452E32D0462E5AD1032103AB019386
:1007E00002AB009345EC104B0C9B4A4600F076FCA4
:1007F000074626F02003462B07EB090805D13B7876
:10080000302B39D00C9B1B68984420462946002287
:10081000002304F01DF9002838D1039B984506D920
:1008200030215A1C03921970039B4345F9D30E9A49
:10083000DB1B3846136004B0BDE8F08709F10109FD
:100840000221CBE705F100422D271546BDE7662EB4
:10085000C3D003AB019302AB009345EC104B0C9B50
:100860004A46022100F03AFC672E0746C1D11AF031
:10087000010F1ED1039BDAE7002200232046294600
:1008800004F0E6F8C0B10C9B1B6898444346CEE7E1
:1008900003AB019302AB009345EC104B0C9B4A4613
:1008A000022100F01BFC472E0746A2D11AF0010FCF
:1008B000E0D007EB0908A8E70C9AC9F1010313601F
:1008C000A2E700BF70B50029BABF49422D232B23F0
:1008D000092982B0027043702BDD0DF10704194D18
:1008E000A446A5FB0123DB0803EB8302A1EB420234
:1008F0008E463032BEF1630F66460CF8012C194665
:100900000CF1FF3CEDDCB31E3031A3420CF8011CAE
:1009100000F102050AD2421C13F8011B02F8011F64
:10092000A342F9D10DF109039B1B1D44281A02B003
:1009300070BD30231944051D8370C170281A02B0A0
:1009400070BD00BFCDCCCCCC2DE9F04F8DB00C46A6
:10095000DDF8588016461F46054602F021FF036861
:100960000693184603F0CCF800230A93D8F8003019
:100970000790073323F0070303F10802D4F800A01F
:1009800094F818B0C8F8002093ED007B8DED047B3F
:100990009DED047B53EC172B904623F0004984ED2A
:1009A000127B9F4B4FF0FF324046494604F082F8DD
:1009B00040B99B4B404649464FF0FF3204F05CF88B
:1009C000002871D0DDE9040102460B4604F072F8FC
:1009D000002840F0298261684B1C4AF480620BF0C9
:1009E000DF0832D0B8F1470F00F0228100232260E7
:1009F00003930AAB029309AB00939DED040BCDF872
:100A000004B00DF123032846FFF7D4FE8146BBF165
:100A1000650F099937D9BBF1660F00F028810A9B51
:100A20008B4240F32F810029D4BFC1F10202012281
:100A300013442361A1654FF0000A9DF82330002B79
:100A40004AD02D2384F8433046E00621002322605B
:100A5000CDF804B0616003930AAB029309AB009335
:100A60009DED040B0DF123032846FFF7A3FEB8F11B
:100A7000470F8146CBD10999C81C80F2F180ABF1B8
:100A8000020B5FFA8BFB01395A4604F150000991C1
:100A9000FFF718FF0A9A1318012A8246236140F3D0
:100AA000378101332361C8E7DDE904010022002317
:100AB00003F0D8FF10B12D2384F843302AF004024C
:100AC000584B2260584ABBF1470F8CBF914699465C
:100AD000032323614FF0000A009733460BAA2146F7
:100AE000284601F0DFFB013023D0236858052BD4C2
:100AF00023694A4631462846B847013019D0226852
:100B0000E0680B9B920719D5984217DD4FF000085B
:100B100004F1190904E0E0680B9BC21A42450DDD9F
:100B200001234A4631462846B847013008F10108FA
:100B3000F1D14FF0FF300DB0BDE8F08F9842B8BF53
:100B400018460DB0BDE8F08FBBF1650F33D9D4E97D
:100B500012010022002303F07BFF002800F09A809E
:100B6000324A012331462846B8470130E1D0DDE959
:100B7000093A534502DB2268D107C1D5DDE90623D6
:100B800031462846B8470130D3D0BAF1010FB6DD5F
:100B90000AF1FF3A4FF0000904F11A0801E0D145CB
:100BA000ADD00123424631462846B847013009F10D
:100BB0000109F4D1BDE7DDF82880B8F1010F40F359
:100BC000988001234A4631462846B8470130B0D0C4
:100BD000DDE9062331462846B8470130A9D0D4E9DB
:100BE00012010022002308F1FF3B03F031FF00282F
:100BF00000F09380B8F1010F40F386804FF00009B8
:100C000004F11A0801E0D9457ED00123424631465D
:100C10002846B847013009F10109F4D189E700BF3E
:100C2000FFFFEF7F5C9B0008609B00086C9B000847
:100C300009B9012161600023226003930AAB02938A
:100C400009AB00939DED040BCDF804B00DF1230327
:100C50002846FFF7AFFD09998146C81CFFF60FAF84
:100C6000636899423FF70BAF4FF0670BD7E6002957
:100C7000636856DD2161002B00F0858001330B4451
:100C80002361D7E623682161DB077FF5D3AE4B1CD8
:100C90002361CFE6099B002B4ADD0A9BD4F858B0AC
:100CA00004935B45A8BF5B46002B984608DD4A4687
:100CB00031462846B84701303FF43BAFD4F858B02E
:100CC00028EAE87293456BDD4FF0000A04F11A0838
:100CD000934604E0A36DA3EB0B0252455FDD0123B5
:100CE000424631462846B84701300AF1010AF1D19F
:100CF0001FE7D9073FF565AF4A460123314628462D
:100D0000B84701303FF415AF534604F15002F1E605
:100D10002268D2077FF591AEC3E65B4609F1010276
:100D2000ECE7002B34D12268D20731D4012380E6CE
:100D3000494A012331462846B84701303FF4F9AE0D
:100D4000DDE9093A5AEA030324D0DDE906233146F6
:100D50002846B84701303FF4ECAE099B002B78DA07
:100D60004FF0000B04F11A0803E0099B5B425B455E
:100D70006FDD0123424631462846B84701300BF16A
:100D8000010BF2D1D5E62268D0077FF553AE75E7A7
:100D900002334EE62268D3077FF5B2AED5E79B4615
:100DA000099B049A9A4202DC2268D00708D5DDE943
:100DB000062331462846B84701303FF4BAAE099BB6
:100DC000049AA2EB0B0AD31A9A45A8BF9A46BAF125
:100DD000000F0BDD09EB0B02534631462846B8479E
:100DE00001303FF4A6AE099B049AD31A2AEAEA7AA4
:100DF00053457FF784AEDDF810B04FF0000904F1E1
:100E00001A0807E0099BABEB0303A3EB0A034B456E
:100E10007FF775AE0123424631462846B847013078
:100E200009F10109EED184E6059B0C4A002BBCBFF9
:100E30002D2384F843302AF004032360084BBBF1D0
:100E4000470F8CBF91469946032323614FF0000A58
:100E500042E653464A464DE66C9B0008689B0008F4
:100E6000649B000870B5104E336805460C46B3B15C
:100E70002146284602F036FC431C0CD0C41C24F04A
:100E80000304A04205D0211A284602F02BFC0130B1
:100E900001D0204670BD4FF0FF34204670BD19468A
:100EA00002F020FC3060E3E73C0300202DE9F8432A
:100EB000CD1C25F0030508350C2D38BF0C25002D61
:100EC000064618DBA94216D8DFF8DC8001F0BEFB2D
:100ED000D8F80420A2B1144603E0636822467BB12F
:100EE0001C4623685B1BF8D40B2B1FD89442636805
:100EF00054D053600CE00C2333600020BDE8F8832D
:100F000029463046FFF7AEFF431C044619D0056062
:100F1000304601F09DFB04F10B00231D20F007007B
:100F2000C21A1CBF1B1AA350BDE8F8836119944272
:100F3000256014BF5160C8F80410635163684B60AA
:100F4000E6E7D8F804701FB33C467F68002FFBD15A
:100F500023683946304604EB030902F0C3FB8145A0
:100F600016D12368ED1A29463046FFF77BFF013082
:100F70000ED02368D8F804202B442360536883B133
:100F8000A34203D01A465B689C42FBD10023B0E722
:100F90000C233360304601F05BFBAEE7C8F8043049
:100FA000B6E7C8F80470B3E73C0300200000000077
:100FB0002DE9F04F03690C69A34283B0C0F28A8027
:100FC000013C01F1140500F1140855F8243058F8DB
:100FD000242001339A428E4681464FEA840105EB74
:100FE000840708EB840AB2FBF3F63AD3CDE9001587
:100FF0000022AC46404613465CF8041B05681FFA05
:1010000081FB06FB0B22090C4FEA124B06FB01BBCE
:1010100092B2A9B2891A19441FFA8BF3C3EB214388
:1010200003EB154389B241EA0341674540F8041BCD
:101030004FEA1B424FEA2343DED2DDE9001558F8A0
:10104000013073B9AAF1040AD04504D307E0D045B2
:1010500004F1FF3403D25AF80439002BF7D0C9F851
:1010600010407146484602F0C3F800282EDB414686
:10107000002255F8040BD1F800C01FFA80FE1FFAB9
:101080008CF3A3EB0E031344020CC2EB234202EBDE
:101090001C429BB243EA0243AF4241F8043B4FEA91
:1010A0002242E6D258F8242008EB84036AB9043BB4
:1010B000434504D807E0984504F1FF3403D253F8C0
:1010C0000429002AF7D0C9F810400136304603B091
:1010D000BDE8F08F002003B0BDE8F08F2DE9F04FA0
:1010E000C5699DB08DED060B269C049057EC106BE6
:1010F00002910B920993002D00F0B183296851B140
:101100006A684A60012393408B6001F0A3FD049B51
:10111000DB6900221A60B7F10009B4BF0123002384
:101120002360774BBCBF29F00049CDF81C9033EA0F
:10113000090300F0AC809DED067B002251EC170BFB
:1011400000238DED007B03F083FC804668B1099A93
:1011500001231360279B13B1279A6A4B13606A4BD4
:10116000059305981DB0BDE8F08F9DED000B049828
:101170001AAA1BA902F0AAF95FEA1955824640F0A3
:101180009C80DDE91A85454405F23243202B40F36B
:101190009B83C3F1400309FA03F905F2124326FACF
:1011A00003F349EA030003F071F90123013DA1F1C2
:1011B000F8711293554B002203F02AF84AA3D3E9A1
:1011C000002303F0DDF94AA3D3E9002303F022F85A
:1011D000064628460F4603F069F947A3D3E90023E2
:1011E00003F0CEF902460B463046394603F012F8BA
:1011F00006460F4603F074FC0022044608900023C4
:101200003046394603F02EFC002840F03683089C17
:10121000A8EB0508162C08F1FF3B00F214833C4BA9
:1012200003EBC403D3E90023DDE9000103F01AFC5A
:10123000002873D0631E0893BBF1000F4FF000032A
:101240001193C0F2068300230C93089B002B6BDAEA
:10125000089B0C9A0D93D21A0C925A4200230893C1
:10126000029B1092092B67D8052BC4BF043B029345
:10127000029BA3F10203CCBF00250125032B00F242
:101280004986DFE813F07C04790470045204099A5B
:10129000C9F3130942F20F7359EA060913601CD10E
:1012A000279B002B00F02D861A4B05930833279AB5
:1012B000059813601DB0BDE8F08FDDE90012C2F3A0
:1012C0001303084643F07F51CDF84880A5F2FF355F
:1012D000DDF8688041F440116CE7279B002B40F05B
:1012E00000840D4B05933CE761436F63A787D23FB2
:1012F000B3C8608B288AC63FFB799F501344D33F05
:101300000000F07F6D9B00086C9B00080000F83F18
:1013100018980008709B00087C9B0008B8F1000F2B
:1013200040F3AF8411900C90089B0D939B440023D5
:101330001093029B092B97D900234FF0FF32CDE980
:101340000A23012502930E95049BDB690021596055
:101350000A9B1393049801F03DFC0590002800F0CF
:10136000E285049B059ADB691A600A9B0E2B00F24A
:101370000D81002D00F00A810D99002940F3518460
:10138000AE4B01F00F0203EBC203C805D3E900899D
:101390004FEA211540F11584A94BDDE90001D3E99D
:1013A000082303F017FACDE9140105F00F05032710
:1013B0007DB1A34EE90708D540464946D6E900234A
:1013C00003F0DEF80137804689466D1006F1080605
:1013D000F0D142464B46DDE9140103F0FBF98046AB
:1013E0008946119B43B1974B00224046494603F082
:1013F00039FB002840F01785384603F057F842467D
:101400004B4603F0BDF8904B002202F003FFA1F120
:101410005073CDE9140115930A9B002B00F09D80B9
:101420000D9B19930A9B18934946404603F058FBBD
:10143000189A824B03EBC20313ED027B05468DED38
:10144000167B03F033F80B4602464946404602F04D
:10145000DFFE059F0E9B30357E1CECB28046894630
:101460003546002B00F07284DDE916237749002011
:1014700003F0B0F9DDE9142302F0CAFE3C704246E5
:101480004B4604460D4603F00BFB002840F0BF849A
:10149000CDF858B0CDF850A0AB460027189DA24615
:1014A0002AE00137AF4280F20685694B5046594623
:1014B000002203F065F8664B002282468B464046C8
:1014C000494603F05DF88946804603F009FB04466F
:1014D00002F0ECFF02460B464046494602F098FEF9
:1014E000303406F8014B52465B468046894603F08D
:1014F000B9FA002840F0DC8442464B4651490020AE
:1015000002F086FE52465B4603F0ACFA0028C8D0D3
:10151000199BDDF850A0059A374603F1010802E057
:10152000974200F0A6843E4617F8013D392BF7D0CC
:101530000133DBB23B70454674E1384602F0B6FF3A
:1015400042464B4603F01CF83F4B002202F062FE7D
:10155000A1F15073CDE9140115933E4B0022404692
:10156000494602F055FEDDE9144522462B46064663
:101570000F4603F095FA002840F08A843046394639
:10158000224605F1004303F06DFA28BB1B9B002B9C
:10159000C0F292800D9A0E2A00F38E80274B0D9A8E
:1015A00003EBC20393ED007B0B9B002B8DED027BC5
:1015B00019DA0A9B002B16DC0ED1264B0022DDE93E
:1015C000020102F0DDFF02460B46DDE9000103F0F7
:1015D00053FA002800F05C840023059E00931F4608
:1015E0000B9BDD4344E2059B5D1CDDE90278DDE9F0
:1015F00000013A46434603F0EDF803F071FA06465F
:1016000002F054FF3A46434602F0BAFF02460B4648
:10161000DDE9000102F0FCFD059A06F130031370CC
:101620000A9B012B2F4600F037830125CDF800A03F
:10163000A846DDE902AB99462CE000BF18980008E7
:10164000089900080000F03F00001C400000E03F47
:10165000000024400000144052465B4620462946C4
:1016600003F0B8F803F03CFA064602F01FFF5246BA
:101670005B4602F085FF08F101080B460246294649
:10168000204602F0C5FD06F13003C84507F8013BCE
:1016900000F000838F4B002202F072FF0022002333
:1016A00004460D4603F0D4F90028D5D00D9DDDF891
:1016B00000A001353E46B5E00E9A002A40F0F180C8
:1016C0000023109E0C9D0E931F4665B1BBF1000FC9
:1016D00009DD5D450C9A2B46A8BF5B46D21A0C92D9
:1016E000ED1AABEB030B109B53B10E9B13B1002E05
:1016F00040F00B835146109A049801F095FC824605
:101700000498012101F0C4FB089B0090002B40F0DD
:10171000D381029B012B40F3E9810120584410F052
:101720001F0000F0B780C0F12003042B40F3F881C4
:101730000C9BC0F11C0003440C93054483440C9B98
:10174000002B05DD514604981A4601F0DDFC824667
:10175000BBF1000F05DD009904985A4601F0D4FC56
:101760000090119B002B40F08C810A9B002B40F3D2
:1017700064810E9B002B40F0BC800D9D0135DDF88F
:101780001480009CDDF828B0DDF81090012607E0F9
:10179000514600230A22484601F080FA013682466B
:1017A00021465046FFF704FCB34500F1300008F82D
:1017B000010BEDDC0A9B002BC8BF1E46059BD8BF62
:1017C0000126814603EB060B0024514601220498B2
:1017D00001F09AFC0099824601F00AFD002840F3CE
:1017E0000382059A02E0934500F016825E460BF1F3
:1017F000FF3B16F8013C392BF5D001338BF8003054
:10180000DDF810800099404601F024FA57B12CB160
:10181000BC4203D02146404601F01CFA04983946E8
:1018200001F018FA0498514601F014FA00233370BD
:10183000099B1D60279B002B3FF493AC05981E600D
:101840001DB0BDE8F08F0123BBF1000F1193BFF66F
:10185000FAACC8F101030C934FF0000BF5E4102033
:1018600000F010FD049B0246D861002800F04D8373
:10187000C0E90055C0E902554DE4204602F016FECD
:1018800032463B4603F0E4F800287FF4C0AC631E08
:101890000893BCE41C230C9A1A440C921D449B44EC
:1018A0004DE7029A012A40F3AA810A9B109A5E1E14
:1018B000B242C0F26781002BA2EB060680F2EC82F6
:1018C0000C9B0A9A9D1A6AE1C3F1200306FA03F001
:1018D00069E400BF000024403946002304980A222E
:1018E00001F0DCF9139B002B074640F3FE820D96B6
:1018F0000A93002D05DD394604982A4601F004FCC0
:101900000746089B002B40F0E481B846059E0A9CE0
:10191000731E1C44069B03F00103CDE90B43049C9A
:1019200000995046FFF744FB39468346504601F084
:101930005FFC009905464246204601F07BFCC368E7
:101940000BF130090146ABBB0A90504601F050FC48
:101950000A990890204601F07DF9089A002A54D18E
:10196000029B1BB90C9B002B00F0AB82002D3FDBD0
:101970000B9BB346B3420BF8019B00F0C18151466B
:1019800000230A22204601F089F94745824639465C
:101990004FF000034FF00A02204630D001F07EF9EC
:1019A0004146074600230A22204601F077F95E46A9
:1019B0008046B5E7049801F04DF9002D06DB069B43
:1019C00003F00102029B1D432A4329D15146012203
:1019D000049801F099FB0099824601F009FC002867
:1019E00040F3F680B9F1390F00F048820BF131096C
:1019F0000D9D06F8019B3C460135474600E701F086
:101A00004DF95E46074680468AE7002DC0F29D826A
:101A1000029B1D430C9B1D4300F09782002AA7DD0B
:101A2000B9F1390F00F02A820D9D09F101033C46FE
:101A300006F8013B01354746E2E6029B022B7FF7A1
:101A400098AE0A9B002B40F0238100990498052250
:101A500001F024F901460090504601F0C9FB00282E
:101A600040F31681059E0D9D312306F8013B01359B
:101A70000099049801F0EEF80135002F7FF4CEAE06
:101A8000D0E60099504601F0B3FB0028BFF66DAEDA
:101A90005146002304980D9C0A2201F0FFF80E9B8A
:101AA000661E8246002B7FF417AF139B002B40F37A
:101AB0000F820D9D0A9362E601461A46049801F0D2
:101AC000B3FA029B0090012B6FDD00230893009A6C
:101AD000136902EB8303186901F088F9C0F1200053
:101AE0001CE6964B05930333FFF7E1BB069B002BE7
:101AF0007FF413AEDDE90612C2F31303002B7FF46B
:101B00000CAE8F4B13402BB10C9B01330C930BF19C
:101B1000010B0123089A0893002A3FF4FEADD6E793
:101B20003FF40DAEC0F13C03B5E601230E930B9BD1
:101B30000D9A134413930133012B1F460A93B8BF28
:101B40000127049B172FDE6940F2FB810122042349
:101B50005B0003F11400B842114602F10102F7D90B
:101B60007160FFF7F7BB01230E930B9B002B36DD53
:101B70001F4613930A93E4E700230E93D7E700234D
:101B80000E93F2E7109B089A1096F31A1A440892E3
:101B90000A9B0C9A15461A449B440C920026049802
:101BA000012101F075F907468FE5069B002B8CD1CA
:101BB000DDE90601C1F313030A46002BA1D008900A
:101BC00085E79DED007B02278DED147BFFF7F0BBD1
:101BD0007FF40EAF19F0010F7FF404AF08E7012383
:101BE000CDE90A33FFF7B0BB03D119F0010F7FF441
:101BF000F8AD5E461BF8013D302BFAD000E6129A94
:101C0000002A00F0078103F233430C9A109E154618
:101C10001A449B440C92C2E7059A31230135137094
:101C2000EEE500F0FB800D9A464B554205F00F02A1
:101C300003EBC203D3E90023DDE9000102F0A0FCBD
:101C40002D11CDE9140100F057813F4E00230227EA
:101C500080468946EA0709D5D6E900234046494629
:101C600002F08EFC01378046894601236D1006F193
:101C70000806EFD1002B7FF4B4ABDDE91489FFF740
:101C8000B0BBC8F1010383460C931190FFF74CBB26
:101C9000059EA5E4DDF800A002460B4602F0BAFA64
:101CA0000D9D02460B46CDE900230135DDE90223F7
:101CB000A84602F0F5FE40B9DDE90223DDE90001A6
:101CC00002F0C6FE18B1F30701D5059A2BE43E4693
:101CD000A8E57968049800F07DFF0546002800F02B
:101CE00029813B6902339A0007F10C010C3000F0A6
:101CF0002FFA04982946012201F006FA804605E6EB
:101D00000D9D3C46013547465FE5049C3946324609
:101D1000204601F089F9524601460746204601F067
:101D2000CDF851468046204600F094FF109B9B1B47
:101D3000C24610933FF4E4ACDCE400BF7C9B000897
:101D40000000F07F1898000808990008DDE91623C4
:101D5000DDE9140102F014FC059B1C70189B012B9B
:101D6000CDE90E0100F0BF80189F059B12961F441D
:101D70007E4B00224046494602F002FC0D460446D6
:101D800002F0AEFE814602F091FB09F130090246F5
:101D90000B462046294602F03BFA06F8019BB74263
:101DA00080468946E4D1129D714B0022DDE90E0187
:101DB00002F030FA02460B464046494602F070FEF9
:101DC00000286FD1DDE90E236949002002F020FAD6
:101DD00002460B464046494602F044FE88B91B9B2A
:101DE000002BFFF66DAC0D9B0E2B3FF769AC614BE2
:101DF0000D9A03EBC20393ED007B8DED027BFFF7A1
:101E0000F4BB3E46013F16F8013C302BF9D0199D3A
:101E1000013507E51A9BC3F13603F6E6DDE90089D3
:101E20000227FFF7DEBA0A9B002B3FF486AB139C18
:101E3000002C7FF7ABAB0D9B013B0022404649468F
:101E400019934A4B02F09CFB80468946781C02F0AD
:101E50002DFB42464B4602F093FB474B002202F01B
:101E6000D9F9A1F15073CDE9140118941593FFF736
:101E7000DBBA08F101083123FFF75CBB0D9D059A21
:101E8000B34639233C460BF8013B01354746ADE4E8
:101E9000002300931F46E5E50C9A15461A449B441F
:101EA0000C927CE6199B059A03F10108FFF73BBBF6
:101EB000DDF850A0ABE7DDF858B0DDF850A0FFF733
:101EC00065BBB9F1390FD9D0002D3FF78FAD8FE544
:101ED000029B022B03DC139B0D9D0A934FE4139B83
:101EE0000A930D96ADE537465EE7029B022BF6DCC2
:101EF000139B0D960A93FCE4DDE914890227FFF792
:101F000070BA1E4B0593FFF72CB91D4B1D48EF21EE
:101F100000F03AFE0498C36900255D60294600F090
:101F200059FE0590A8B9184B1648002240F2AF118F
:101F300000F02AFE144B13482A4640F2EF2100F02D
:101F400023FE00217160FFF705BA002A3FF73EAD7E
:101F50004EE5049B059ADB690B951A604FF0FF3341
:101F6000012213930E920A93FFF710BB0000244046
:101F70000000E03F1898000800001C40709B00081B
:101F8000809B0008989B0008C49B0008002950D043
:101F900038B551F8043C0C1F002BB8BFE4180546B7
:101FA00000F054FB274A13682BB1A3420CD92168D7
:101FB000601883422CD0636028461460BDE8384026
:101FC00000F046BBA3420FD81A465B68002BF9D13C
:101FD00011685018844217D02CD36360546028468F
:101FE000BDE8384000F034BB11685018A04214D04E
:101FF00020D8216860188342EFD118685B680844D4
:10200000C4E900035460EAE723680B441360E6E781
:1020100018685B6808442060CDE7206801445018C8
:1020200083421160DBD1D3E900040144C2E900140A
:10203000D5E770470C232B602846BDE8384000F0F8
:1020400007BB00BF400300202DE9F8430746884640
:1020500016464FF00009D6E90154013D10D4A3897A
:10206000012B08D9B4F90E3001332146384602D08D
:10207000C04749EA0009013D6B1C04F16804EED138
:102080003668002EE7D14846BDE8F88338B52F4BB7
:102090001B6805460C4613B11A6A002A4BD0B4F9E6
:1020A0000C3018071CD5226922B313F0010107D0A8
:1020B000616900204942A060A1613AB1002038BDA9
:1020C000980758BF6169A160002AF7D1190658BF67
:1020D0001046F4D543F04003A3814FF0FF3038BDE4
:1020E000D9062CD55A0712D4226943F00803A381DC
:1020F000002ADAD103F42071B1F5007FD5D0214652
:10210000284600F0A7FAB4F90C302269CDE7616BDC
:1021100051B104F14402914204D02846FFF736FF42
:10212000B4F90C300022626322690021C4E9002165
:1021300023F02403D9E71846FEF7E8F9AFE70922B0
:1021400043F040032A60A381C7E700BF0C000020D2
:10215000844641EA000313F003036DD1403A41D3B2
:1021600051F8043B40F8043B51F8043B40F8043B71
:1021700051F8043B40F8043B51F8043B40F8043B61
:1021800051F8043B40F8043B51F8043B40F8043B51
:1021900051F8043B40F8043B51F8043B40F8043B41
:1021A00051F8043B40F8043B51F8043B40F8043B31
:1021B00051F8043B40F8043B51F8043B40F8043B21
:1021C00051F8043B40F8043B51F8043B40F8043B11
:1021D00051F8043B40F8043B51F8043B40F8043B01
:1021E000403ABDD2303211D351F8043B40F8043BA1
:1021F00051F8043B40F8043B51F8043B40F8043BE1
:1022000051F8043B40F8043B103AEDD20C3205D3B0
:1022100051F8043B40F8043B043AF9D2043208D0A8
:10222000D2071CBF11F8013B00F8013B01D30B881A
:1022300003806046704700BF082A13D38B078DD0F8
:1022400010F003038AD0C3F10403D21ADB071CBFCA
:1022500011F8013B00F8013B80D331F8023B20F834
:10226000023B7BE7043AD9D3013A11F8013B00F86D
:10227000013BF9D20B7803704B7843708B788370F5
:1022800060467047024B01461868FEF70FBE00BF5C
:102290000C000020024B01461868FFF777BE00BF14
:1022A0000C0000202DE9F84F92461F460A698B6802
:1022B000DDF828909A42B8BF1A46CAF8002091F873
:1022C00043300C46064613B10132CAF8002022689A
:1022D00091065FD5DAF800300233CAF80030226880
:1022E00012F0060F11461DD1E1689942D8BF114680
:1022F00018DD4FF0000804F1190B05E0E568DAF885
:102300000030ED1A45450CDD01235A46394630466A
:10231000C847013008F10108F0D14FF0FF30BDE8A7
:10232000F88F216894F84330003B18BF01238A06D8
:102330000AD5E1185A1C302081F84300224494F851
:10234000451082F84310023304F143023946304607
:10235000C8470130E1D02368DAF80050216903F062
:102360000603042BD4E902201BD08A4220DD4FF063
:102370000008521A90441A34002501E0454517DA46
:102380000123224639463046C847013005F1010590
:10239000F4D1C2E712F0060F0DD0003B18BF0123A5
:1023A000D2E7401B8A4220EAE078E2DC0028E2DC47
:1023B0000020BDE8F88FE168DAF800309942D8BF14
:1023C000114696DCAEE700BF2DE9F047174684B012
:1023D0000A7E0C9D0C460646984601F1430C002AE5
:1023E00035D0A2F15803D9B2202969D8202B67D85B
:1023F000DFE813F0E600660066006600660066002F
:1024000066006600660066006600AC00700066004C
:102410006600660066007000660066006600660082
:1024200021008300C60066006600B60066008300D7
:1024300066006600EC002B6822686169181D286040
:1024400010061B6802D4520600F1E08019600023D8
:10245000E1462361CDF800803B4603AA2146304681
:10246000FFF720FF013020D023694A463946304625
:10247000C047013019D02368E068DDF80C909B0755
:1024800018D5484516DD002504F1190A04E0E06876
:10249000A0EB0903AB420DDD01235246394630461D
:1024A000C047013005F10105F1D14FF0FF3004B014
:1024B000BDE8F0874845B8BF484604B0BDE8F0879E
:1024C00084F84220012004F142090023206184F8AD
:1024D0004330BFE72A682368111D1806296002D41B
:1024E000590600F195801068014600286268C0F224
:1024F000938054484FF00A0E15E020682B6810F0C6
:10250000800F53F8041B02D1400648BF89B26F2ADE
:102510004C482B6014BF4FF00A0E4FF0080E0023FA
:10252000626884F84330002AA26051DB236823F0FC
:102530000403236000294BD1002A7BD1E146BEF180
:10254000080F56D0ACEB0903236183E72B681A68A8
:1025500004332B6004F1420984F842200120B4E7DF
:102560002B686268191D2960D3F800900021484645
:1025700001F0DEFB002863D0A0EB09006060A4E757
:10258000236843F02003236078222F4884F84520F5
:102590002A6813F0800F52F8041B03D113F0400F88
:1025A00018BF89B22A60DA0744BF43F020032360D2
:1025B00019B9236823F0200323604FF0100EAEE713
:1025C000582384F845301F482368E1E72368DBE798
:1025D0007546E146B1FBF5F305FB131A0A46AA421C
:1025E00010F80A1009F8011D1946F3D2BEF1080FC0
:1025F000A8D12368DD07A5D5626823699A42A1DCCA
:10260000302309F8013C09F1FF399BE719801EE7E7
:10261000B2F90010084668E72D20002AA26084F86D
:10262000430002DB23F0040323600A2505484942E6
:10263000AE46CEE7037884F8423004F142097EE7E3
:10264000606842E7D89B0008EC9B0008704700BF19
:10265000704700BF70B5B1F90C300C46990796B0C1
:1026600007D504F147030122C4E90432236016B000
:1026700070BDB4F90E100029054629DB6A4601F049
:1026800011FC002822DB4FF480612846019EFEF7F2
:102690000DFC88B3A389206043F0800306F47046E4
:1026A000A381B6F5005F4FF48063C4E90403DED173
:1026B000B4F90E10284600F07BF80028D7D0A38983
:1026C00023F0030343F00103A381D0E7B4F90C30F6
:1026D00013F0800F14BF40264FF480663146284621
:1026E000FEF7E4FB40B1A389206043F08003C4E916
:1026F0000406A38116B070BDB4F90C309A05B6D4A7
:1027000023F0030304F1470243F002030121C4E96B
:102710000421A3812260AAE770B50C46B1F90E101E
:10272000002996B015461E460FDB6A4601F0BAFB3B
:1027300000280ADB019B03F47043A3F50053B3FAAE
:1027400083F34FF480625B0908E0A28912F0800FE6
:102750004FF0000314BF40224FF48062002033602A
:102760002A6016B070BD00BF0EB400B582B003ABD6
:10277000816853F8042B019300F072F802B05DF801
:1027800004EB03B0704700BF0FB400B5074983B036
:1027900004AB086853F8042B8168019300F060F8DB
:1027A00003B05DF804EB04B0704700BF0C000020DC
:1027B00038B5074D0022044608462A6006F0B2FDEF
:1027C000431C00D038BD2B68002BFBD0236038BDE4
:1027D000440300209368013B002B936011DA10B48E
:1027E0009469A34209DB0A2907D01368581C1060BA
:1027F000197008465DF8044B70475DF8044B00F013
:1028000073B91368581C106019700846704700BFF0
:102810009BB1F8B5134406460F46541E5D1E01E0F9
:10282000AC4208D014F8011F3A463046FFF7D2FFF9
:10283000431CF5D1F8BD0020F8BD0020704700BF53
:10284000936810B514461BB918460023636010BD89
:1028500000F0AEFF0023A3600023636010BD00BF43
:102860002DE9F04FA1B08B4691461C46049018B15B
:10287000036A002B00F01C81BBF80C30180740F1F4
:102880009580DBF81030002B00F090800023CA46C2
:102890000D9343F22003ADF839309AF80030864E9C
:1028A00007940127002B79D0D14604E019F8013FA5
:1028B000002B00F08580252BF8D1B9EB0A0840F0F9
:1028C000828099F80030002B68D000234FF0FF324F
:1028D000CDE9092309F1010908930B938DF86330C1
:1028E0001E9305E0089A07FA03F31A430892A146DB
:1028F0004C46052214F8011B304601F019FAA24695
:10290000831B0028EED1089BD90644BF20228DF8F6
:10291000632099F800101A0744BF2B228DF863201A
:102920002A2966D1079A1168043200290792C0F259
:102930009A800B9199F801102E2970D05F4C0322D8
:10294000204601F0F5F938B1089B001B4022824077
:1029500013430AF1010A08931AF8011B58488DF82D
:102960003810062201F0E4F9002800F08280554B6F
:10297000002B69D007AA0092534B04985A4608A925
:10298000FDF7E2FF0390039B013307D00D9B039AF1
:1029900013440D939AF80030002B85D1BBF80C300E
:1029A0005B060AD40D9821B0BDE8F08F0498594613
:1029B000FFF76CFB00283FF469AF4FF0FF30F2E700
:1029C000B9EB0A08EAD00AF1FF35CDF81490A94610
:1029D000049D01E0A0453ED94C465A4619F8011F16
:1029E0002846FFF7F7FE02340130A4EB0A04F1D1C8
:1029F000D4E7A1F13002092A88BFCA469CD80B9BB4
:102A000000E00134217803EB830302EB4303A1F1DF
:102A10003002092AF5D92E290B93A2468ED19AF8B5
:102A200001102A292FD1079B9AF802101A680992DF
:102A30000433002A0AF102000793B8BF4FF0FF33B6
:102A40008246B8BF099379E7079B073323F0070352
:102A5000083307939AE70D99DDF81490414499F8EB
:102A600000300D912FE7494243F002030B91089388
:102A700060E707AA0092144B04985A4608A9FFF78A
:102A8000A3FC03907FE7A1F130020023092A0993F8
:102A90000AF1010A3FF652AF1AF8011F03EB830354
:102AA00002EB4303A1F13002092AF5D9099345E766
:102AB000FDF72CFDE0E600BF009C0008089C000824
:102AC0000C9C0008490900081128000810B4054CA6
:102AD0008446134620685DF8044B0A466146FFF7BA
:102AE000BFBE00BF0C000020F8B50D4614460646D8
:102AF00010B1036A002B37D0A389A269A2601A071C
:102B000019D52369BBB122686169D31AEDB2994224
:102B10002F4620DD0133A1680139A160511C2160DD
:102B2000157062699A420DD0A389DB0701D50A2D81
:102B300008D03846F8BD21463046FFF7A7FA38B925
:102B40002369E0E721463046FDF7ECFD0028F0D090
:102B50004FF0FF37EDE721463046FDF7E3FD002853
:102B6000F6D122680123D6E7FDF7D0FCC4E700BF09
:102B700010B4044C03460A4620685DF8044B19461D
:102B8000FFF7B2BF0C00002000B50B4C25681446BF
:102B9000EE681A4685B003460D464CB107490095CC
:102BA000CDE901143046064901F036F900F080FF06
:102BB00004490C46F3E700BF0C000020149C0008F9
:102BC000249C00087C9A000808B513460022FFF7F1
:102BD000DBFF00BF70B5C66905460C465EB1F36801
:102BE000A3B153F82400E8B1026843F8242000237D
:102BF000C0E9033370BD1020FFF744FB0646E861CF
:102C0000E8B10023C0E90033C0E9023321220421E6
:102C1000284600F0E1FFEB69F060DB68002BE0D1B3
:102C2000002070BD012101FA04F6721D92002846B1
:102C300000F0D2FF0028F3D0C0E90146D7E7034BEC
:102C4000034832466B21FFF79FFF00BF809B0008BF
:102C5000549C000870B5C66905460C464EB13CB19F
:102C6000EB696268DB6853F82210216043F8224068
:102C700070BD1020FFF706FB0246E86120B1C0E9F5
:102C80000066C0E90266EAE7024B03488F21FFF7BE
:102C90007BFF00BF809B0008549C00082DE9F04199
:102CA0000D6907460E461C4601F1140E0020DEF8A1
:102CB00000108BB202FB03434FEA134C090C02FBDA
:102CC00001CC01309BB203EB0C4385424EF8043B30
:102CD0004FEA1C44EBDC3CB1B368AB4207DD06EBCA
:102CE000850301355C6135613046BDE8F08171686E
:102CF00038460131FFF76EFF804690B132690232EB
:102D000006F10C0192000C30FFF722FA31463846EA
:102D10004646FFF79FFF06EB850301355C61356191
:102D2000E2E7034B03484246BA21FFF72DFF00BFFD
:102D3000C49B0008549C00082DE9F8431746284A14
:102D40001E4608330C46092E82FB03124FEAE3733A
:102D50000546C3EB62033ADD4FF0010C00214FEA58
:102D60004C0C634501F10101F9DC2846FFF732FF05
:102D7000014670B3089B4361092F4FF001030361C3
:102D800012DC0A340927BE420BDDF61B264414F878
:102D9000013B0A22303B2846FFF780FFB442014640
:102DA000F5D10846BDE8F88304F1090804EB0709EA
:102DB000444614F8013B0A22303B2846FFF76EFFD9
:102DC0004C450146F5D1A7F108044444DBE7002156
:102DD000CBE70A46034B0448D321FFF7D5FE00BFDB
:102DE000398EE338C49B0008549C0008B0F5803F3E
:102DF000034636BF030400201020B3F1807F3CBFA0
:102E00001B020830B3F1805F3CBF1B010430B3F1FB
:102E1000804F03D3002B06DB013070479B0003D4A7
:102E20005B0003D4202070470230704703307047A6
:102E3000036813F00702014607D0DA071FD498078A
:102E400021D55B080B600120704798B2A0B11046F5
:102E5000DAB20AB908301B0A1A0704BF1B0904308A
:102E60009A0704BF9B080230DA0703D45B0800F11D
:102E7000010006D00B6070471B0C1020E8E7002013
:102E80007047202070479B080B600220704700BFEE
:102E900010B50C460121FFF79DFE024618B1012333
:102EA000C0E9043410BD034B034840F24511FFF75D
:102EB0006BFE00BFC49B0008549C00082DE9F04F36
:102EC000D1F810801569A84585B00E46924605DBFD
:102ED0002A46534645468A4690461E46DAF808304A
:102EE000DAF8041005EB0804A342B8BF0131FFF77C
:102EF00071FE8446002800F08B8000F1140707EB78
:102F0000840E774505D23B46002243F8042B9E45AC
:102F1000FBD8143606EB88080AF11409464509EB7C
:102F2000850566D2A5EB0A03153B23F003030AF1DE
:102F3000150A043355452CBF9B464FF0040BCDF8C2
:102F400008E00394AE46E24605E0090C2AD1B045FC
:102F500007F104074AD956F8041B8DB2002DF4D0AE
:102F6000CC463C46002301965CF8040B216886B2EF
:102F70008AB2000C05FB0622090C1A4405FB00115D
:102F800001EB124192B242EA0142E64544F8042BB9
:102F90004FEA1143E8D8019E47F80B3056F8041C5D
:102FA000090CD4D03B68002248461D463C46944656
:102FB000028801FB02C202EB15429BB243EA0243C4
:102FC00044F8043B50F8043B25684FEA134CABB27D
:102FD00001FB0C3303EB124370454FEA134CE7D36C
:102FE000B04547F80B3007F10407B4D8DDE902E437
:102FF000D446002C02DC05E0013C03D05EF8043D21
:10300000002BF9D06046CCF8104005B0BDE8F08F39
:10301000034B044862464FF4B171FFF7B5FD00BFA2
:10302000C49B0008549C00082DE9F04312F00303F0
:1030300083B0144607462DD10E46A4101CD0FA6961
:103040008AB39568002D39D0E3074FF0000906D404
:10305000641011D0286898B10546E307F8D53146C9
:103060002A463846FFF72AFF314680463846FFF7A2
:10307000F1FD64104646EDD1304603B0BDE8F08363
:103080002A4629463846FFF719FF2860C0F8009005
:103090000546E2E7013B184A52F823200023FFF7D8
:1030A000FDFD0646C9E71020FFF7ECF80246F8617F
:1030B000E0B10023C0E90033C0E902330121384602
:1030C0000192FFF787FD019A054640B1012340F2C6
:1030D0007121C0E90431002390600360B4E7074B1D
:1030E00007482A4640F24511FFF74EFD054B0448BC
:1030F00040F2B311FFF748FD08980008C49B000890
:10310000549C0008809B00082DE9F0470D4691462D
:103110002B69496803EB6218AB6808F101049C4213
:1031200007464FEA621A04DD5B009C4201F101018F
:10313000FADC3846FFF74EFD064600284DD0BAF1BE
:10314000000F00F114000EDD0AF105024FEA820CB7
:10315000034606EB8202002143F8041B9342FBD195
:10316000ACF114031844296905F1140319F01F097F
:1031700003EB810129D0C9F1200E84464FF0000AEB
:103180001A6802FA09F242EA0A024CF8042B53F8D0
:10319000042B994222FA0EFAF2D84B1B153B23F06E
:1031A0000303043305F11502914238BF042340F8AC
:1031B00003A0BAF1000F00D14446384634612946D5
:1031C000FFF748FD3046BDE8F087043853F8042B7C
:1031D00040F8042F9942F9D8EEE7034B03483246F2
:1031E0004FF4EF71FFF7D0FCC49B0008549C00081B
:1031F0000B6984460069C01A16D10CF1140C143105
:103200000CEB830210B401EB830301E0944508D278
:1032100052F8044D53F8041D8C42F7D005D24FF0FC
:10322000FF305DF8044B7047704701205DF8044B98
:10323000704700BF2DE9F04F15460A692B69D21A75
:10324000002A83B0884640F0878001F1140605F11A
:10325000140101EB830106EB830301E09E427ED261
:1032600053F8044D51F8042D9442F7D075D32B46F2
:103270000024454698466968FFF7ACFC8146002863
:1032800000F089802E69C460D8F8100005F1140B95
:1032900008F1140E09F1140A05F110020EEB80007A
:1032A0000BEB860157464FF0000CCDF804B05EF8EA
:1032B000044B52F8045F1FFA84FBABB2A3EB0B0381
:1032C000240C6344C4EB154404EB23449BB243EA4F
:1032D0000443704547F8043B4FEA244CE7D8A0EB81
:1032E000080208F115084045A2F1150234BF00207C
:1032F000012092080028DDF804B002F101044FEA31
:10330000840408BF04240BEB0405A942544433D9B8
:103310002746284650F8043B1CFA83FE1A0C6344E7
:1033200002EB2E429BB243EA0243814247F8043B40
:103330004FEA224CEED80139491B21F003010C441D
:1033400023B954F8043D013E002BFAD04846C9F891
:10335000106003B0BDE8F08F89DA01248BE700210B
:10336000FFF738FC814678B101220023C0E904232D
:10337000484603B0BDE8F08F00284FEA820208BF3C
:1033800000220AEB0204DBE7064B07484A4640F2FC
:103390003721FFF7F9FB034B03484A4640F245212A
:1033A000FFF7F2FBC49B0008549C000882B08DED2F
:1033B000000B164B019A1340A3F15073002B06DD4E
:1033C00000221946104641EC100B02B070475B42D8
:1033D000B3F1A07F4FEA235209DA4FF400231341DF
:1033E00000221946104641EC100B02B07047A2F1C2
:1033F00014031E2BDABF4FF00042DA4001220023F3
:103400001946104641EC100B02B070470000F07FE7
:10341000F8B5046900F1140606EB8404271F54F87C
:10342000045C2846FFF7E2FCC0F120030A280B6089
:1034300033DDBE42A0F10B0119D254F8080C21B3C0
:10344000C1F120078D4020FA07F215438840A4F10E
:10345000080145F07F538E4243F4401319D254F8CB
:103460000C1CF9400843024643EC102BF8BD0B2816
:103470000AD005FA01F141F07F53002043F44013D4
:10348000024643EC102BF8BD002045F07F5343F477
:103490004013024643EC102BF8BDC0F10B0C25FA8B
:1034A0000CF1BE4241F07F5338BF54F8081C00F1C4
:1034B000150034BF21FA0CF1002105FA00F0084391
:1034C00043F44013024643EC102BF8BD2DE9F043C2
:1034D0000E4683B0012159EC108B1546FFF77AFB9D
:1034E0000446002846D0C9F30A57C9F313030FB1A5
:1034F00043F480130193B8F1000313D101A8FFF73F
:1035000097FC019B63610122203022610FB3A7F277
:1035100033470744C0F1350037602860204603B0C8
:10352000BDE8F08368460093FFF782FC019BF8B189
:103530000099C0F1200203FA02F2C3400A4301934A
:10354000002B62610CBF01220222A3612261002FC5
:10355000DDD104EB8203A0F2324030601869FFF73E
:1035600045FCC0EB42102860204603B0BDE8F08364
:10357000009AE5E7034B0448224640F20F31FFF77B
:1035800003FB00BFC49B0008549C00082DE9F043D6
:1035900083B0884669468146FFF73AFF01A9404655
:1035A00055EC104BFFF734FFD8F81030D9F8102045
:1035B000D21ADDE900315B1A03EB4213002B59EC00
:1035C000108B0DDD05EB03573D4642464B4620462A
:1035D000294601F0FFF841EC100B03B0BDE8F08381
:1035E000C3EB033309EB03518946EEE7172870B5A7
:1035F00006460CDD0A490B4D0020002422462B46CE
:1036000000F0BEFF013EF9D141EC100B70BD064B3E
:1036100003EBC003D3E9040141EC100B70BD00BF04
:103620000000F03F000024400898000801394911CB
:1036300001F1010C116902F1140303EB81018B42CA
:1036400000EB8C0C16D210B5A0F1040E53F8044B0D
:103650004EF8044F9942F9D88B1A153B23F0030317
:1036600004331844844504D9002340F8043B8445BE
:10367000FBD810BD844505D9002340F8043B8445A0
:10368000FBD87047704700BF03694A11934200F1AD
:10369000140009DA00EB830302E053F8042DAAB901
:1036A0008342FAD80020704700EB8203F8DD11F066
:1036B0001F01F5D010B450F8224024FA01F28A40DC
:1036C000944209D001205DF8044B704701207047F7
:1036D00053F8042D002AF5D18342F9D800205DF873
:1036E000044B704738B5074D0022044608462A604F
:1036F00005F0CCFD431C00D038BD2B68002BFBD05F
:10370000236038BD4403002010B50C46B1F90E10FB
:1037100000F05EFB002803DB636D0344636510BDAE
:10372000A38923F48053A38110BD00BF00207047FC
:103730002DE9F0410C46B1F90C101F46CB050546AA
:1037400016460BD421F48051A1813B46B4F90E10EA
:1037500032462846BDE8F04100F0D0BBB4F90E1067
:103760000223002200F0B4FBB4F90C10EAE700BF1A
:1037700010B50C46B1F90E1000F0AAFBB4F90C30EC
:10378000421C0EBF23F4805343F480536065A38131
:1037900010BD00BFB1F90E1000F092B9F0307047C3
:1037A000004870474C010020004870474C01002041
:1037B0009368002B00F0F8802DE9F04FB1F90CC0B0
:1037C0001CF0080F83B0904681460C4631D00B693F
:1037D0007BB31CF00207D8F8006038D00027D4F87B
:1037E00028B0216ADFF8C4A23D4655452B463A462B
:1037F00028BF53464846C5B1D847002840F3CA8081
:10380000D8F808301B1A07442D1AC8F80830002BC6
:1038100000F0B68055452B46D4F828B0216A28BF61
:1038200053463A464846002DE6D1D6E9007508369B
:10383000DBE721464846FEF729FC002840F0AF8030
:10384000B4F90CC0D8F800601CF00207C6D11CF017
:10385000010A63D12368A168574618468B46002F9A
:1038600058D01CF4007F00F0B580B9420A4600F23F
:10387000E1801CF4906F2FD0216962695D1A02EB20
:10388000420202EBD2726B1C52103B44934292BF35
:1038900093469B461A461CF4806F00F0EA8011465E
:1038A0004846FDF703FB002800F0F9802A4621690D
:1038B0000090FEF74DFCA289009B22F4906242F03A
:1038C0008002A2815819ABEB0505C4F814B023613E
:1038D000A5602060BB463A465146009200F090F940
:1038E000A1682368009AA1EB0B011A443D46A16030
:1038F00022600027D8F808305B1BAA44C8F80830BB
:10390000002B3DD02368A168B4F90CC018468B4643
:10391000002FA6D1D6E900A708369EE73846BB4659
:103920003D460097002D41D0002846D0009A2068DF
:10393000A168D4E90473AA4228BF2A46B84204D930
:1039400001EB030A524500F38580934275DC216A3E
:10395000A76A5A464846B847B0F1000A1ADD009BEC
:10396000B3EB0A0300930FD00120D8F80830A3EB83
:103970000A03D344A5EB0A05C8F80830002BD1D1BF
:10398000002003B0BDE8F08F21464846FCF7CAFE90
:103990000028EAD0B4F90C3043F04003A3814FF083
:1039A000FF3003B0BDE8F08F0020704775683346E4
:1039B0000836002DFAD0D3F800B02A460A2158461E
:1039C00000F0B6F9002867D00130A0EB0B0300939C
:1039D0001A46ACE722699A4214D36269BA4211D8F6
:1039E0006FF00043BB4228BF3B46A56A93FBF2F34E
:1039F000216A02FB03F348465246A847051EC9DD6B
:103A00007F1B77E7B94228BF39460D4618460A465C
:103A1000514600F0F5F8A1682368491B2B44A160CA
:103A200023600029ECD121464846FCF77BFE0028A4
:103A3000E6D0AFE7BB463A464EE75946019200F062
:103A4000DFF8019AA3689B1AA360236813442360DC
:103A5000924684E75946524600F0D2F82368534410
:103A6000236021464846FCF75DFE00283FF477AF0F
:103A700090E7484600F0E4F9034600287FF422AFBF
:103A800021694846FEF782FAB4F90C300C22C9F8D5
:103A9000002023F080037FE76A1C009247E70C2296
:103AA000B4F90C30C9F8002076E700BF00FCFF7FB6
:103AB00008B5062000F0F4FA012005F015FC00BF5F
:103AC00038B5074D0022044608462A6005F022FC5E
:103AD000431C00D038BD2B68002BFBD0236038BDC1
:103AE000440300200000000000000000000000006F
:103AF00000000000000000000000000000000000C6
:103B000030B490F800F020F007016FF0000C10F0D6
:103B1000070491F820F040F048804FF000046FF067
:103B20000700D1E9002391F840F000F1080082FA83
:103B30004CF2A4FA8CF283FA4CF3A2FA8CF34BBB4E
:103B4000D1E9022382FA4CF200F10800A4FA8CF2C7
:103B500083FA4CF3A2FA8CF3E3B9D1E9042382FA95
:103B60004CF200F10800A4FA8CF283FA4CF3A2FAAA
:103B70008CF37BB9D1E9062301F1200182FA4CF2E2
:103B800000F10800A4FA8CF283FA4CF3A2FA8CF349
:103B9000002BC6D0002A04BF04301A4612BAB2FA6B
:103BA00082F200EBD20030BC7047D1E9002304F070
:103BB0000305C4F100004FEAC50514F0040F91F8A5
:103BC00040F00CFA05F562EA05021CBF63EA050342
:103BD00062464FF00004AAE770B5A1FB025454B945
:103BE0002946FDF763F9064618B12A462146FCF737
:103BF000B5FC304670BD0C2202600026F9E700BF1C
:103C000088420ED98B1883420BD900EB020C002A94
:103C10006ED0624613F801CD02F801CD9942F9D178
:103C200070470F2A0FD8034602F1FF3C002A5FD0ED
:103C30000CF1010C013B8C4411F8012B03F8012F0E
:103C40006145F9D1704740EA01039B0751D1A2F1C8
:103C5000100370B501F1200C23F00F0501F1100ED7
:103C600000F11004AC441B095EF8105C44F8105CD1
:103C70005EF80C5C44F80C5C5EF8085C44F8085C88
:103C80005EF8045C44F8045C0EF1100EE64504F1A5
:103C90001004E9D1013312F00C0F01EB031102F013
:103CA0000F0400EB031328D0043C24F003064FEA72
:103CB000940C1E441C1F8E465EF8045B44F8045F9F
:103CC000B442F9D10CF1010402F0030203EB8403C6
:103CD00001EB840102F1FF3C4AB10CF1010C013B04
:103CE0008C4411F8012B03F8012F6145F9D170BD07
:103CF000704702F1FF3C03469AE72246EAE700BF1D
:103D000010B4034CD4F8E040A4465DF8044B60477F
:103D10005C00002049B1FF2A02D80A7001207047D8
:103D20008A2303604FF0FF3070470846704700BF9A
:103D300001F0FF01102A2BDB10F0070F08D010F85C
:103D4000013B013A8B422DD010F0070F42B3F6D160
:103D5000F0B441EA012141EA014122F007047FF079
:103D600000070023F0E80256083C85EA010586EAD0
:103D7000010685FA47F5A3FA87F586FA47F6A5FA0C
:103D800087F68EB9EED1F0BC01F0FF0102F0070218
:103D900032B110F8013B013A83EA010313B1F8D1C3
:103DA0000020704701387047002D06BF35460338A4
:103DB000073815F0010F07D1013015F4807F02BFDD
:103DC000013015F4C03F0130F0BC0138704700BF2E
:103DD00038B50C46084D8446114620461A46002345
:103DE0002B60644605F086FA431C00D038BD2B6872
:103DF000002BFBD0236038BD440300200CB400B579
:103E000083B004AB53F8042B0193FEF729FD03B0F4
:103E10005DF804EB02B070470EB410B583B005AB8B
:103E2000064C53F8042B019301462068FEF718FD59
:103E300003B0BDE8104003B0704700BF0C00002085
:103E40002DE9F041144641B30AB306460D4600F091
:103E50006BF88442074602D8B4EB500F13D82146C2
:103E60003046FDF723F8804650B1BC422246294631
:103E700028BF3A46FEF76CF929463046FEF786F829
:103E80004046BDE8F081A8464046BDE8F081A04626
:103E9000FEF77CF84046BDE8F081BDE8F0411146F0
:103EA000FDF704B870B50C46084D034600262046C1
:103EB00011461C462E6005F030FA431C00D070BD40
:103EC0002B68002BFBD0236070BD00BF4403002093
:103ED00038B50C46084D8446114620461A46002344
:103EE0002B60644605F020FA431C00D038BD2B68D7
:103EF000002BFBD0236038BD4403002038B50C46AE
:103F0000084D8446114620461A4600232B6064461D
:103F100001F0EEF8431C00D038BD2B68002BFBD01D
:103F2000236038BD4403002051F8043C181F002BC7
:103F3000BCBF0B58C018704710B4034CD4F8E44011
:103F4000A4465DF8044B60475C00002082B049B194
:103F50005AB16BB113780B601278101E18BF012094
:103F600002B0704701A9002AF3D1104602B0704791
:103F70006FF00100F4E700BF38B5C46B0CB100204E
:103F800038BD80210546FCF791FF0246E86330B159
:103F9000031F7C3243F8044F9342FBD1EFE74FF00D
:103FA000FF3038BD30B51F2983B0054608D8C36B34
:103FB0000C4653B153F8240043F8242003B030BD1D
:103FC000162303604FF0FF30F8E780210192FCF7E1
:103FD0006DFF019AE86303460028F3D0011F00F14A
:103FE0007C05002041F8040FA942FBD1E2E700BFA5
:103FF0001F2938B505461ED8C26B0C466AB152F867
:10400000213053B1012B06D0591C10D0002142F8A9
:10401000241020469847002038BD284600F0F2F8CA
:10402000224601462846BDE8384000F0D5B81623A0
:104030000360012038BD162303604FF0FF3038BD08
:104040001F292AD838B5C36B0C460546A3B153F8CF
:10405000242003EB84034AB1511C0BD0012A07D062
:10406000002520461D609047284638BD012038BDF8
:10407000032038BD022038BD8021FCF717FF03461E
:10408000E86338B1021F00217C3042F8041F8242ED
:10409000FBD1DCE74FF0FF3038BD4FF0FF30704709
:1040A00038B5134B1F281D681DD8EA6B044662B152
:1040B00052F820304BB1012B05D0591C0FD00021F4
:1040C00042F820109847002038BD284600F09AF8A2
:1040D000224601462846BDE8384000F07DB8162348
:1040E0002B60012038BD16232B604FF0FF3038BD08
:1040F0000C000020114B1F2870B51E6808D8F36B08
:1041000004460D464BB153F8240043F8245070BDCB
:10411000162333604FF0FF3070BD80213046FCF72E
:10412000C5FE0346F0630028F4D0021F00217C3056
:1041300042F8041F8242FBD1E5E700BF0C000020DB
:1041400038B50B4B1D68EC6B0CB1002038BD8021DD
:104150002846FCF7ABFEE86338B1031F00F17C0290
:1041600043F8044F9342FBD1EFE74FF0FF3038BDE7
:104170000C00002038B5174B1F281D6826D80446B0
:10418000E86BA0B150F8243000EB84004BB15A1C0E
:104190000BD0012B07D00025056020469847284604
:1041A00038BD012038BD032038BD022038BD802134
:1041B0002846FCF77BFEE86340B1031F00F17C0159
:1041C000002243F8042F8B42FBD1DBE74FF0FF3096
:1041D00038BD00BF0C00002070B50C46084D0346EA
:1041E0000026204611461C462E6005F075F8431C3B
:1041F00000D070BD2B68002BFBD0236070BD00BFCA
:104200004403002005F066B881F0004102E000BFE1
:1042100083F0004330B54FEA41044FEA430594EA86
:10422000050F08BF90EA020F1FBF54EA000C55EAC1
:10423000020C7FEA645C7FEA655C00F0E2804FEA92
:104240005454D4EB5555B8BF6D420CDD2C4480EA74
:10425000020281EA030382EA000083EA010180EAA4
:10426000020281EA0303362D88BF30BD11F0004FF2
:104270004FEA01314FF4801C4CEA113102D0404228
:1042800061EB410113F0004F4FEA03334CEA133363
:1042900002D0524263EB430394EA050F00F0A7807B
:1042A000A4F10104D5F1200E0DDB02FA0EFC22FA76
:1042B00005F2801841F1000103FA0EF2801843FA6A
:1042C00005F359410EE0A5F120050EF1200E012A5B
:1042D00003FA0EFC28BF4CF0020C43FA05F3C01899
:1042E00051EBE37101F0004507D54FF0000EDCF112
:1042F000000C7EEB00006EEB0101B1F5801F1BD3BB
:10430000B1F5001F0CD349085FEA30004FEA3C0CBE
:1043100004F101044FEA445212F5800F80F09A80B4
:10432000BCF1004F08BF5FEA500C50F1000041EBB8
:10433000045141EA050130BD5FEA4C0C404141EBBC
:104340000101013C28BFB1F5801FE9D291F0000FB7
:1043500004BF01460020B1FA81F308BF2033A3F166
:104360000B03B3F120020CDA0C3208DD02F1140C5D
:10437000C2F10C0201FA0CF021FA02F10CE002F198
:104380001402D8BFC2F1200C01FA02F120FA0CFC91
:10439000DCBF41EA0C019040E41AA2BF01EB0451DA
:1043A000294330BD6FEA04041F3C1CDA0C340EDCD8
:1043B00004F11404C4F1200220FA04F001FA02F31B
:1043C00040EA030021FA04F345EA030130BDC4F1D9
:1043D0000C04C4F1200220FA02F001FA04F340EACE
:1043E0000300294630BD21FA04F0294630BD94F07F
:1043F000000F83F4801306BF81F480110134013D66
:104400004EE77FEA645C18BF7FEA655C29D094EAD6
:10441000050F08BF90EA020F05D054EA000C04BF54
:104420001946104630BD91EA030F1EBF002100203F
:1044300030BD5FEA545C05D14000494128BF41F0DE
:10444000004130BD14F580043CBF01F5801130BD42
:1044500001F0004545F0FE4141F470014FF00000CD
:1044600030BD7FEA645C1ABF194610467FEA655C7E
:104470001CBF0B46024650EA013406BF52EA033520
:1044800091EA030F41F4002130BD00BF90F0000F0E
:1044900004BF0021704730B54FF4806404F132044A
:1044A0004FF000054FF0000150E700BF90F0000F03
:1044B00004BF0021704730B54FF4806404F132042A
:1044C00010F0004548BF40424FF000013EE700BFFA
:1044D00042004FEAE2014FEA31014FEA02701FBF8A
:1044E00012F07F4393F07F4F81F06051704732F0BC
:1044F0007F4208BF704793F07F4F04BF41F4002113
:10450000704730B54FF4607401F0004521F0004170
:104510001CE700BF50EA010208BF704730B54FF0FA
:1045200000050AE050EA010208BF704730B511F0FB
:10453000004502D5404261EB41014FF4806404F133
:1045400032045FEA915C3FF4D8AE4FF003025FEAB9
:10455000DC0C18BF03325FEADC0C18BF033202EB3D
:10456000DC02C2F1200300FA03FC20FA02F001FA97
:1045700003FE40EA0E0021FA02F11444BDE600BF3A
:1045800070B54FF0FF0C4CF4E06C1CEA11541DBFE9
:104590001CEA135594EA0C0F95EA0C0F00F0DEF8B4
:1045A0002C4481EA030621EA4C5123EA4C5350EA99
:1045B000013518BF52EA033541F4801143F48013EA
:1045C00038D0A0FB02CE4FF00005E1FB02E506F07B
:1045D0000042E0FB03E54FF00006E1FB03569CF0D0
:1045E000000F18BF4EF0010EA4F1FF04B6F5007FD6
:1045F00064F5407404D25FEA4E0E6D4146EB060648
:1046000042EAC62141EA55514FEAC52040EA5E50D0
:104610004FEACE2EB4F1FD0C88BFBCF5E06F1ED87A
:10462000BEF1004F08BF5FEA500E50F1000041EBB1
:10463000045170BD06F0004646EA010140EA02005E
:1046400081EA0301B4EB5C04C2BFD4EB0C0541EA80
:10465000045170BD41F480114FF0000E013C00F395
:10466000AB8014F1360FDEBF002001F0004170BDB9
:10467000C4F10004203C35DA0C341BDC04F11404D2
:10468000C4F1200500FA05F320FA04F001FA05F25E
:1046900040EA020001F0004221F0004110EBD3702B
:1046A00021FA04F642EB06015EEA430E08BF20EA57
:1046B000D37070BDC4F10C04C4F1200500FA04F3FA
:1046C00020FA05F001FA04F240EA020001F000418C
:1046D00010EBD37041F100015EEA430E08BF20EAFF
:1046E000D37070BDC4F1200500FA05F24EEA020E47
:1046F00020FA04F301FA05F243EA020321FA04F076
:1047000001F0004121FA04F220EA020000EBD3702C
:104710005EEA430E08BF20EAD37070BD94F0000F2C
:104720000FD101F00046400041EB010111F4801F60
:1047300008BF013CF7D041EA060195F0000F18BF11
:10474000704703F00046520043EB030313F4801F4D
:1047500008BF013DF7D043EA0603704794EA0C0F07
:104760000CEA135518BF95EA0C0F0CD050EA41061D
:1047700018BF52EA4306D1D181EA030101F000419A
:104780004FF0000070BD50EA410606BF10461946C2
:1047900052EA430619D094EA0C0F02D150EA0136CE
:1047A00013D195EA0C0F05D152EA03361CBF10460F
:1047B00019460AD181EA030101F0004141F0FE41AE
:1047C00041F470014FF0000070BD41F0FE4141F432
:1047D000780170BD70B54FF0FF0C4CF4E06C1CEA32
:1047E00011541DBF1CEA135594EA0C0F95EA0C0FE7
:1047F00000F0A7F8A4EB050481EA030E52EA0335A2
:104800004FEA013100F088804FEA03334FF08055C2
:1048100045EA131343EA12634FEA022245EA1115EF
:1048200045EA10654FEA00260EF000419D4208BFA0
:10483000964244F1FD0404F5407402D25B084FEA4D
:104840003202B61A65EB03055B084FEA32024FF4F9
:1048500080104FF4002CB6EB020E75EB030E22BF56
:10486000B61A754640EA0C005B084FEA3202B6EB16
:10487000020E75EB030E22BFB61A754640EA5C00C5
:104880005B084FEA3202B6EB020E75EB030E22BF55
:10489000B61A754640EA9C005B084FEA3202B6EB56
:1048A000020E75EB030E22BFB61A754640EADC0015
:1048B00055EA060E18D04FEA051545EA16754FEA77
:1048C00006164FEAC30343EA52734FEAC2025FEA95
:1048D0001C1CC0D111F4801F0BD141EA00014FF024
:1048E00000004FF0004CB6E711F4801F04BF0143F5
:1048F0000020B4F1FD0C88BFBCF5E06F3FF6AFAE11
:10490000B5EB030C04BFB6EB020C5FEA500C50F1A0
:10491000000041EB045170BD0EF0004E4EEA113123
:1049200014EB5C04C2BFD4EB0C0541EA045170BD2A
:1049300041F480114FF0000E013C90E645EA060E6E
:104940008DE60CEA135594EA0C0F08BF95EA0C0F9C
:104950003FF43BAF94EA0C0F0AD150EA01347FF4E4
:1049600034AF95EA0C0F7FF425AF104619462CE7BB
:1049700095EA0C0F06D152EA03353FF4FDAE10461E
:10498000194622E750EA410618BF52EA43067FF46F
:10499000C5AE50EA41047FF40DAF52EA43057FF4FF
:1049A000EBAE12E74FF0FF3C06E000BF4FF0010C0A
:1049B00002E000BF4FF0010C4DF804CD4FEA410C6E
:1049C0007FEA6C5C4FEA430C18BF7FEA6C5C1BD03B
:1049D00001B050EA410C0CBF52EA430C91EA030FBC
:1049E00002BF90EA020F0020704710F1000F91EA19
:1049F000030F58BF994208BF90422CBFD8176FEAE7
:104A0000E37040F0010070474FEA410C7FEA6C5CB4
:104A100002D150EA013C07D14FEA430C7FEA6C5CBB
:104A2000D6D152EA033CD3D05DF8040B704700BFE7
:104A30008446104662468C461946634600E000BF35
:104A400001B5FFF7B7FF002848BF10F1000F01BD07
:104A50004DF808EDFFF7F4FF0CBF012000205DF8D2
:104A600008FB00BF4DF808EDFFF7EAFF34BF012057
:104A700000205DF808FB00BF4DF808EDFFF7E0FFF0
:104A800094BF012000205DF808FB00BF4DF808ED41
:104A9000FFF7CEFF94BF012000205DF808FB00BFA8
:104AA0004DF808EDFFF7C4FF34BF012000205DF88A
:104AB00008FB00BF4FEA410C7FEA6C5C02D150EA70
:104AC000013C0AD14FEA430C7FEA6C5C02D152EA06
:104AD000033C02D14FF0000070474FF001007047D7
:104AE0004FEA410212F5001215D211D56FF4787316
:104AF000B3EB625212D94FEAC12343F0004343EAB9
:104B0000505311F0004F23FA02F018BF4042704793
:104B10004FF00000704750EA013005D111F000401D
:104B200008BF6FF0004070474FF00000704700BFB3
:104B300053B94AB9002908BF00281CBF4FF0FF3104
:104B40004FF0FF3000F06AB9ADF1080C6DE904CE0A
:104B500000F006F8DDF804E0DDE9022304B0704758
:104B60002DE9F047089D0E4604460F46002B4AD11A
:104B700094468C45B2FA82F260D942B1C2F1200368
:104B8000974020FA03F30CFA02FC1F4394404FEACB
:104B90001C4E1FFA8CF6B7FBFEF1230C0EFB1177AF
:104BA00043EA074301FB06F098420AD91CEB0303D2
:104BB00001F1FF3780F01581984240F212810239ED
:104BC00063441B1AA4B2B3FBFEF00EFB103344EA9D
:104BD000034400FB06F6A6420AD91CEB040400F1CC
:104BE000FF3380F00081A64240F2FD806444023829
:104BF00040EA0140A41B00211DB1D4400023C5E9B7
:104C00000043BDE8F0878B4205D90DB1C5E900012D
:104C100000210846F5E7B3FA83F1002946D1B342F3
:104C200002D3824200F2F580841A66EB030201206F
:104C30001746002DE5D0C5E90047E2E7002A40F01D
:104C40009380A1EB0C034FEA1C471FFA8CFE012155
:104C5000B3FBF7F607FB1630230C43EA00430EFBC9
:104C600006F0984208D91CEB030306F1FF3802D284
:104C7000984200F2D08046461B1AA4B2B3FBF7F06C
:104C800007FB103344EA03440EFB00FEA64508D997
:104C90001CEB040400F1FF3302D2A64500F2B680FB
:104CA0001846A4EB0E0440EA0640A5E7C1F1200730
:104CB0008B4022FA07FC4CEA030C06FA01FE20FAAC
:104CC00007F426FA07F344EA0E0400FA01F84FEA63
:104CD0001C404FEA1449B3FBF0FE1FFA8CF600FBB0
:104CE0001E3349EA03430EFB06F9994502FA01F225
:104CF0000BD91CEB03030EF1FF3A80F08580994538
:104D000040F28280AEF1020E6344A3EB0909A4B223
:104D1000B9FBF0F300FB139944EA094403FB06F6E0
:104D2000A64208D91CEB040403F1FF3068D2A64266
:104D300066D9023B644443EA0E40A41BA0FB02E692
:104D4000B4427346B14652D34FD05DB1B8EB0302C3
:104D500064EB090404FA07F722FA01F31F43CC407D
:104D6000C5E9007400214CE7C2F1200120FA01F3EB
:104D70000CFA02FC26FA01F1964033434FEA1C4735
:104D80001FFA8CFEB1FBF7F007FB1016190C41EA75
:104D9000064100FB0EF68E4204FA02F408D91CEB21
:104DA000010100F1FF382DD28E422BD90238614427
:104DB000891B9BB2B1FBF7F607FB161143EA0143CF
:104DC00006FB0EF1994208D91CEB030306F1FF38EC
:104DD00014D2994212D9023E63445B1A46EA00415A
:104DE00036E73946EDE6184602E7F045ADD2BEEBB0
:104DF000020366EB0C060138B146A6E74646ECE72F
:104E0000034698E74046D3E7D6467EE76444023837
:104E100047E708460DE7023E63442DE7704700BFB1
:104E200008B50268034B9A4200D008BD01F026F98C
:104E3000FBE700BF0020004072B6FEE700B595B06A
:104E40003022002108A8FBF789FB00230393049379
:104E500005930693079301931E4A116C41F080510C
:104E60001164126C02F080520192019A02931A4A64
:104E7000116841F480411160126802F4804202928C
:104E8000029A0222089201210B9110210C910E929C
:104E90000F93082310934823119312920423139322
:104EA00008A800F0B7FB80B90F23039302210491F7
:104EB000002305934FF480520692079303A800F055
:104EC00013FE20B915B05DF804FBFFF7B5FFFFF73F
:104ED000B3FF00BF003802400070004008B501F089
:104EE000B3F8FFF7ABFF04F021FA04F04FFA04F037
:104EF000A3FA03F0E9FD00F007F903F0F7FDFEE780
:104F000070B582B001221B491B4802F0DEFA04F0A2
:104F100011FB04F029FB02E0204603F061FE174B71
:104F20005C68042C00D80524144B1B78012BF3D1AA
:104F30001C2003F02BFF01900028EDD004F072FB41
:104F400004F0B8FB04F0FEFB019D0D4E0FCE0FC523
:104F500096E8070085E8070000231A4601A90948DA
:104F6000006802F075FC0128D6D0019803F090FF8C
:104F7000D2E700BF5C030020544D0020C801002090
:104F80009C4D00204C03002080B586B04FF0FF32CE
:104F900005A9214B186802F086FD0128F6D1059B72
:104FA0009869FFF795FA02460B461C48FDF7ECFBA3
:104FB000059B1E695F69D868FFF78AFA04460D46AB
:104FC0003846FFF785FACDE902013046FFF780FA4F
:104FD000CDE9000122462B461148FDF7D5FB059B84
:104FE0005E689F681868FFF773FA04460D463846F6
:104FF000FFF76EFACDE902013046FFF769FACDE915
:10500000000122462B460748FDF7BEFB059803F03A
:105010003FFF00230593B9E74C030020349A0008B2
:105020004C9A0008809A000830B583B000242546C9
:1050300012E0022410E09DF80730AA2B0CD10124C5
:105040000AE09DF80730552BF3D0AA2B04D000249A
:1050500002E09DF8075003244FF0FF320DF10701E5
:105060001D4B186802F01FFD0128F5D1032CF3D861
:1050700001A353F824F000BF375000084350000844
:105080005350000889500008022D0BD0032D10D07A
:10509000012D1CD1114B01221A701148FBF744F964
:1050A0000024D9E700240D4B1C700E48FBF73CF997
:1050B000D2E79DF80740002CCED00A2303FB04F171
:1050C000064B59600848FDF75FFB0024C4E707481A
:1050D000FBF72AF90024BFE748030020C80100209D
:1050E000A89A0008C09A0008D89A0008F49A000804
:1050F00010B514464FF0FF3392B2024801F089FF19
:10510000204610BD544D002008B5124A042120202D
:1051100003F074FD104B1860104A0121202003F0A9
:105120006DFD0F4B18600F4A00210F4803F0FAFC89
:105130000E4B18600E4A00210E4803F0F3FC0E4B94
:1051400018600E4A00210E4803F0ECFC0D4B18606D
:1051500008BD00BFAC9C00084C030020949C0008D4
:10516000480300200C9D0008014F00085803002050
:10517000E89C0008894F000854030020C49C0008E4
:1051800029500008500300200268114B9A4200D0B9
:10519000704710B582B0002301930E4C01AA21463E
:1051A0000D48006802F018FC012221460B4802F06D
:1051B0008CF9019B4BB14FF0E0234FF08052C3F8C4
:1051C000042DBFF34F8FBFF36F8F02B010BD00BF30
:1051D000004800405C03002048030020544D00209C
:1051E000FEE7FEE7FEE7FEE7FEE7704708B5024888
:1051F00002F000F808BD00BF544D002008B5024879
:1052000000F0C2F808BD00BF6003002000B583B005
:10521000002200920D4B596C41F480415964596C45
:1052200001F48041009100990192196C41F0805184
:1052300019641B6C03F080530193019B0F216FF0E5
:10524000010000F0EDFE03B05DF804FB0038024001
:1052500030B589B0044600230193214B1A6C42F407
:1052600080721A641B6C03F480730193019B02A982
:1052700003A800F00FFD069BCBB900F0EBFC034642
:10528000184AA2FB03239B0C013B1748174A0260F4
:1052900040F2E732C26043600023036183608361B0
:1052A00000F08AF9054630B1284609B030BD00F05B
:1052B000D1FC4300E4E70C4800F01EF80546002846
:1052C000F2D12D2000F0BCFE0F2C01D90125EBE717
:1052D000002221462D2000F0A3FE054B1C60E3E7D1
:1052E0000038024083DE1B436003002000200040A2
:1052F000D40100207047000090F83D30DBB2012B54
:1053000037D1022380F83D300268D36843F00103AF
:10531000D3600368194A934220D0B3F1804F1DD067
:10532000A2F57C42934219D002F58062934215D0D7
:1053300002F58062934211D002F5784293420DD07B
:1053400002F57052934209D0A2F59432934205D0EF
:105350001A6842F001021A60002070479A6802F051
:105360000702062A07D01A6842F001021A600020DC
:105370007047012070470020704700BF00000140C7
:10538000704770477047704770B504460368DE6821
:105390001D6915F0020F10D016F0020F0DD06FF03E
:1053A00002021A610123037703689B6913F0030F5C
:1053B0005ED0FFF7E6FF0023237715F0040F12D02D
:1053C00016F0040F0FD023686FF004021A61022355
:1053D000237723689B6913F4407F4FD02046FFF763
:1053E000D0FF0023237715F0080F12D016F0080F16
:1053F0000FD023686FF008021A6104232377236813
:10540000DB6913F0030F40D02046FFF7BAFF0023FB
:10541000237715F0100F12D016F0100F0FD023685D
:105420006FF010021A61082323772368DB6913F4F5
:10543000407F31D02046FFF7A4FF0023237715F0EB
:10544000010F02D016F0010F2DD115F0800F02D000
:1054500016F0800F2FD115F0400F02D016F0400F3C
:1054600031D115F0200F02D016F0200F33D170BDCE
:10547000FFF786FF2046FFF785FF9CE72046FFF7F2
:105480007FFF2046FFF77EFFABE72046FFF778FF60
:105490002046FFF777FFBAE72046FFF771FF204667
:1054A000FFF770FFC9E723686FF001021A61204619
:1054B000FFF7B6FCC9E723686FF080021A61204647
:1054C00000F0A7F8C7E723686FF040021A61204692
:1054D000FFF759FFC5E723686FF020021A612046E5
:1054E00000F096F8C3E700000368324A904212D0F9
:1054F000B0F1804F0FD0A2F57C4290420BD002F564
:105500008062904207D002F58062904203D002F59B
:105510007842904203D123F070034A681343254A2E
:1055200090422AD0B0F1804F27D0A2F57C42904221
:1055300023D002F5806290421FD002F58062904233
:105540001BD002F57842904217D002F5705290427B
:1055500013D002F5806290420FD002F58062904233
:105560000BD0A2F59832904207D002F580629042AB
:1055700003D002F58062904203D123F44073CA68DD
:10558000134323F080034A6913438A68C2620A689E
:105590008262084A904203D002F58062904201D1B3
:1055A0000A690263026842F0040202600122426159
:1055B000036070470000014040B310B5044690F806
:1055C0003D30F3B1022384F83D30214651F8040BFD
:1055D000FFF78AFF012384F8463084F83E3084F8D0
:1055E0003F3084F8403084F8413084F8423084F809
:1055F000433084F8443084F8453084F83D3000204E
:1056000010BD80F83C30FFF775FEDBE701207047E6
:1056100070477047002800F0E08170B582B0044602
:10562000036813F0010F3BD09F4B9B6803F00C0302
:10563000042B2CD09C4B9B6803F00C03082B21D02F
:105640006368B3F5803F4FD0B3F5A02F52D0964B8F
:105650001A6822F480321A601A6822F480221A60D2
:105660006368002B50D000F015FD05468E4B1B687B
:1056700013F4003F14D100F00DFD401B6428F5D950
:105680000320B1E1884B5B6813F4800FD8D0864BC0
:105690001B6813F4003F03D06368002B00F09F8168
:1056A000236813F0020F54D07F4B9B6813F00C0F4C
:1056B0003ED07D4B9B6803F00C03082B33D0E3688E
:1056C000002B68D0794B01221A6000F0E3FC0546FC
:1056D000754B1B6813F0020F54D100F0DBFC401B2C
:1056E0000228F5D903207FE16F4A136843F4803321
:1056F0001360B5E76C4B1A6842F480221A601A688E
:1057000042F480321A60ABE700F0C4FC0546664BF9
:105710001B6813F4003FC3D000F0BCFC401B64289E
:10572000F5D9032060E1604B5B6813F4800FC6D1AC
:105730005D4B1B6813F0020F03D0E368012B40F0B0
:105740005081594A136823F0F803216943EAC103E1
:105750001360236813F0080F42D063696BB3534B97
:105760000122C3F8802E00F095FC05464E4B5B6F7E
:1057700013F0020F34D100F08DFC401B0228F5D944
:10578000032031E1484A136823F0F803216943EA12
:10579000C1031360DDE7454B00221A6000F07AFC7C
:1057A0000546414B1B6813F0020FD2D000F072FC8B
:1057B000401B0228F5D9032016E13C4B0022C3F818
:1057C000802E00F067FC0546374B5B6F13F0020F2D
:1057D00006D000F05FFC401B0228F5D9032003E14E
:1057E000236813F0040F77D02F4B1B6C13F0805FEE
:1057F00033D1002301932C4B1A6C42F080521A646F
:105800001B6C03F080530193019B0125284B1B68FF
:1058100013F4807F23D0A368012B34D0052B38D01C
:10582000214B1A6F22F001021A671A6F22F004024C
:105830001A67A368002B3DD000F02CFC06461A4BDB
:105840001B6F13F0020F46D100F024FC801B41F2C5
:1058500088339842F3D90320C6E00025D6E7144ADE
:10586000136843F48073136000F014FC0646104B79
:105870001B6813F4807FCED100F00CFC801B022843
:10588000F5D90320B0E0084A136F43F00103136712
:10589000CFE7054B1A6F42F004021A671A6F42F005
:1058A00001021A67C5E700BF003802400000474206
:1058B0000070004000F0EEFB0646524B1B6F13F0E9
:1058C000020F08D000F0E6FB801B41F288339842BB
:1058D000F3D9032088E0EDB9A369002B00F08380A1
:1058E000484A926802F00C02082A51D0022B17D0C5
:1058F000454B00221A6600F0CDFB0446414B1B6865
:1059000013F0007F42D000F0C5FB001B0228F5D940
:10591000032069E03B4A136C23F080531364DBE7F8
:10592000394B00221A6600F0B5FB0546354B1B6863
:1059300013F0007F06D000F0ADFB401B0228F5D924
:10594000032051E0E369226A1343626A43EA821347
:10595000A26A5208013A43EA0243E26A43EA026356
:10596000284A5360284B01221A6600F093FB044634
:10597000244B1B6813F0007F06D100F08BFB001B4B
:105980000228F5D903202FE000202DE000202BE095
:10599000012B2BD01B4B5B6803F48001E269914221
:1059A00026D103F03F02216A8A4223D1616A47F679
:1059B000C0721A40B2EB811F1ED103F44031A26ABB
:1059C0005208013AB1EB024F18D103F07063E26A5A
:1059D000B3EB026F14D1002006E0012070470120D4
:1059E00002E0012000E0002002B070BD0120FBE7D2
:1059F0000120F9E70120F7E70120F5E70120F3E7AF
:105A00000120F1E7003802400000474208B5334B5F
:105A10009B6803F00C03042B5BD0082B5BD12F4B4E
:105A20005A6802F03F025B6813F4800F2CD02B4BB6
:105A30005868C0F388104FEA401CBCEB000C6EEBBA
:105A40000E0E4FEA8E1343EA9C634FEA8C11B1EBC2
:105A50000C0163EB0E03DB0043EA5173C90011EB49
:105A6000000C43F10003590200234FEA4C2041EAA5
:105A7000DC51FFF75DF8194B5B68C3F30143013359
:105A80005B00B0FBF3F008BD144B5868C0F38810FE
:105A90004FEA401CBCEB000C6EEB0E0E4FEA8E136F
:105AA00043EA9C634FEA8C11B1EB0C0163EB0E03EC
:105AB000DB0043EA5173C90011EB000C43F1000312
:105AC000990200234FEA8C2041EA9C51FFF730F8FD
:105AD000D1E70348D7E70348D5E700BF00380240C5
:105AE00000127A000024F400002800F09B8070B5BA
:105AF0000D4604464F4B1B6803F007038B4208D248
:105B0000CBB24C4A1370136803F007038B4240F08A
